:020000040000FA
:060000000CEF16F01200E7
:060008008AEF08F012006F
:06001800E6EF08F0120003
:0E0020000100362C0000D60100000F00000089
:02002E00D9CF28
:10003000E6FFE1CFD9FFE652A0940F015F6B626A41
:10004000160E616E9F0E5B6F7B0E606E648C5C6B38
:10005000030EE66EE66AE66A540EE66E0F0EE66E74
:10006000CCEC15F0106E050EE15E1050649CDF6A5A
:10007000DF50106E116A100E105C000E115810E265
:10008000DF50040DF3CFE9FFF4CFEAFF000EE926BD
:10009000020EEA22EE6AEE6AEE6AEE6ADF2AE8D71C
:1000A0000F01160E536F62A602D06296FCD70101B3
:1000B000BB6BC06BC16BC26B6498DF6A040EDF5C04
:1000C00018E2EA6ADF34FE0BEA36E96EAF0EE92683
:1000D000010EEA22EE6AED6AEA6ADF34FE0BEA36C6
:1000E000E96EA70EE926010EEA22EE6AED6ADF2A22
:1000F000E5D70101080EAF6F020EB06FA16BA06BC8
:10010000E552E552E7CFD9FF1200D9CFE6FFE1CFA4
:10011000D9FFE6520101A00507E164BA05D0626A81
:1001200060806088020EA06F6250040B05E0605092
:10013000040B02E06294B9D864B260D06250010B43
:1001400016E06050010B13E072DFD08EA284A08411
:10015000F28E0101040EA06F0201400E026F020E2A
:10016000036F080E016F006B8C0E001362906250DB
:10017000100B05E06050100B02E085D862986250C9
:10018000400B13E06050400B10E0010EE66EE66A93
:10019000000EE66EE66A730EE66EE66AB2EC09F0F1
:1001A000106E060EE15E1050629C6250200B04E05F
:1001B0006050200B01E04DD86250020B14E06050FB
:1001C000020B11E0010EE66EE66A000EE66EE66ACC
:1001D000E6687F0EE66EB2EC09F0106E060EE15E88
:1001E00010500F015F6B040E0101E76EA019E8AE1D
:1001F00002D0E73402D0E750A05D02E2A19424D0FF
:1002000060A621D0DF6A040EDF5C1DE262A61BD06F
:1002100063CFC8F16296780E0101C81502E15AD881
:1002200010D0000EE66EE66AC80EE66E010EE66EAF
:10023000720EE66EE66AB2EC09F0106E060EE15E32
:100240001050DF2AE0D7A194E552E552E7CFD9FF5D
:1002500012000F0153A115D0A3C1E9FFA4C1EAFF09
:10026000EF5080080DE1AFC1E9FFB0C1EAFFEF50E8
:10027000840806E1A3C1E9FFA4C1EAFF8C0EEF6E7A
:100280005391629A1200608462986482000EE66E56
:10029000E66AE66EE66A750EE66EE66AB2EC09F0AC
:1002A000106E060EE15E10501200000EE66EE66A59
:1002B000E66EE66A740EE66EE66AB2EC09F0106E5F
:1002C000060EE15E10506492609462A402D06294C3
:1002D000FCD71200D9CFE6FFE1CFD9FFE652FD0EE1
:1002E0000101C8155AE17E0EC815E8407F0B040DC8
:1002F000F3CFA3F1F4CFA4F1000EA327020EA423A1
:10030000A3C1A5F1A4C1A6F1A575A3C1E9FFA4C12C
:10031000EAFFEF503C0BE842E8420D083CE1A3C184
:10032000E9FFA4C1EAFF020EE926000EEA22EECFA1
:1003300010F0EFCF11F0480E10182BE1020E11183B
:1003400028E1A3C1E9FFA4C1EAFF020EE926000EDD
:10035000EA22400EEE6E020EED6EDF6ADF50106E86
:10036000116A080E105C000E115813E2DF50EA6AA1
:10037000480FE96E020EEA22EF50E66EDF50EA6A9D
:10038000400FE96E020EEA22E552E750EF6EDF2AD7
:10039000E5D70DD807D02ED805D0FD0EC815040816
:1003A00001E14ED8E552E552E7CFD9FF1200AFC1C7
:1003B000E9FFB0C1EAFFEF50800B05E0AFC1E9FFF4
:1003C000B0C1EAFFEF6A0101B76BB86BBC6BBD6BE4
:1003D000BB6BB5D8000EE66EE66AE66EE66A030E03
:1003E000E66EE66AB2EC09F0106E060EE15E1050A1
:1003F00034EF04F0020E0101B85D02E18FEF05F069
:100400006CD80101C9511AE1A5C1E9FFA6C1EAFFF3
:10041000EE52080EEF6EA5C1E9FFA6C1EAFF020E7B
:10042000E926000EEA22400EEE6E020EED6EA5C128
:10043000E9FFA6C1EAFF8C0EEF6E1200C96B120035
:10044000D9CFE6FFE1CFD9FFE652AFC1E9FFB0C196
:10045000EAFFEF50400B01E0010EDF6E0101AF75C6
:10046000080EA05D0CE142C25CFF0F015C51000868
:1004700003E20101100E02D00101040EA06FB805C5
:1004800026E1AFC1E9FFB0C1EAFF020EE926000E86
:10049000EA22480EEE6E020EED6EB8DA020E01018F
:1004A000B75D06E1AFC1E9FFB0C1EAFF840E0DD030
:1004B000DF5006E1AFC1E9FFB0C1EAFFC80E05D0C9
:1004C000AFC1E9FFB0C1EAFF880EEF6E01D005D8D9
:1004D000E552E552E7CFD9FF1200D9CFE6FFE1CFD1
:1004E000D9FF020EE1260101B86BAFC1E9FFB0C12F
:1004F000EAFFEF6A040EAF19106EB0C111F0DE6EA4
:10050000B0C1DDFFDECFE9FFDDCFEAFFEF6AC0AFAC
:100510000CD0C351C41107E005D0C4C1FAFF0101DA
:10052000C351F96EFADF0101C09F020EE15C02E2E5
:10053000E16AE552E16EE552E7CFD9FF1200020110
:100540004051600BE842E842E842E842E8420009D4
:1005500001E0120041510C0A50E00B0A3FE00C0A86
:1005600031E0010A22E00B0A1EE0020A1CE0030A45
:1005700018E0080A10E0010A0CE00F0A08E0030A7C
:1005800001E012000101BB8F080EA06F120083EF83
:1005900003F02BEF06F00101A10EB96F010EBA6F47
:1005A0000CD0DAEF03F0FEEF02F044510101B96F15
:1005B000BA6BA20EB927010EBA23BB81010EBC6F24
:1005C000BB8F12000101BB8F02014451EA6AA20FE6
:1005D000E96E010EEA2242C2EFFF1200000EE66E43
:1005E000E66AE66EE66A020EE66EE66AB2EC09F0CC
:1005F000106E060EE15E105012001200D9CFE6FF19
:10060000E1CFD9FF040EE1260201420510E140517D
:100610001F0B00090CE10101BB8F030E0201415DBC
:1006200004E10101010EC76F02D00101C76B020195
:1006300042515FE140511F0B02085BE144510F0B37
:10064000000957E00101BB8F020144BF0BD04451A8
:100650000F0BE96EEA6AD890E936EA36A70EE9266A
:10066000010E0AD044510F0BE96EEA6AD890E936C0
:10067000EA36AF0EE926010EEA22EECFDEFFEDCF1D
:10068000DDFF030E415D06E1DECFE9FFDDCFEAFFCE
:10069000840E2ED044510F0B116A530F106E0F0EA3
:1006A0001122020E10C0DBFF030E11C0DBFF020E91
:1006B000DBCFE9FF030EDBCFEAFFEF9044AF0CD0B6
:1006C000DECFE9FFDDCFEAFFEF6ADF74DECFE9FFBF
:1006D000DDCFEAFF400E0CD0DECFE9FFDDCFEAFF31
:1006E000880EEF6EDF74DECFE9FFDDCFEAFFC80EC4
:1006F000EF6E040EE15C02E2E16AE552E16EE55262
:10070000E7CFD9FF1200800E0201405D52E10101E6
:10071000C00EBB6F02014351030A29E0010A09E040
:10072000030A45E10101600EB96F2A0EBA6F120E7D
:1007300038D04251F66EF76AD890F636F736E90EA1
:10074000F6262A0EF7220900F5CFB9F10A00F5CFF7
:10075000BAF1020E0101F76AB925F66EBA51F72215
:100760000900F5CFBCF10A00F5CFBDF11200030E70
:10077000425D1AE24251F66EF76AD890F636F736C5
:10078000EB0EF6262A0EF7220900F5CFB9F10A0082
:10079000F5CFBAF1B9C1F6FFBAC1F7FF0800F550BD
:1007A0000101BC6FBD6B12000101BB6B12000101A6
:1007B000BB6B1200D9CFE6FFE1CFD9FF020EE126D5
:1007C0000201486B496B40511F0B020A11E0030AFA
:1007D0000CE0010A35E10101BB8F020148810101F2
:1007E000C7052EE1020148832BD00101BB8F28D021
:1007F0000101BB8F020144BF0BD044510F0BE96EC6
:10080000EA6AD890E936EA36A70EE926010E0AD040
:1008100044510F0BE96EEA6AD890E936EA36AF0E1A
:10082000E926010EEA22EECFDEFFEDCFDDFFDECFBF
:10083000E9FFDDCFEAFFEF50040B02E0010E486F45
:100840000101BBAF07D0480EB96F020EBA6FBB8172
:10085000020EBC6F020EE15C02E2E16AE552E16E5B
:10086000E552E7CFD9FF120064980101BBBF47D022
:10087000C0AF26D0020EB86FAFC1E9FFB0C1EAFF2A
:10088000EE52EF6AAFC1E9FFB0C1EAFFC80EEF6EEA
:10089000A5C1E9FFA6C1EAFFEE52080EEF6EA5C1A1
:1008A000E9FFA6C1EAFF020EE926000EEA22480E81
:1008B000EE6E020EED6EA5C1E9FFA6C1EAFF7AD089
:1008C000A5C1E9FFA6C1EAFFEE52080EEF6EA5C171
:1008D000E9FFA6C1EAFF020EE926000EEA22400E59
:1008E000EE6E020EED6EA5C1E9FFA6C1EAFF8C0E09
:1008F000EF6EAFC1E9FFB0C1EAFF840E5CD0C0BFAC
:1009000084D0020140AF59D00101BC510201465DC3
:100910000101BD510201475904E246C2BCF147C280
:10092000BDF174D80101010EB86FA5C1E9FFA6C1E0
:10093000EAFFEE52080EEF6EA5C1E9FFA6C1EAFF7D
:10094000020EE926000EEA22400EEE6E020EED6E59
:10095000A5C1E9FFA6C1EAFF800EEF6EC96BA3C176
:10096000E9FFA4C1EAFFEE52080EEF6EA3C1E9FF52
:10097000A4C1EAFF020EE926000EEA22400EEE6E46
:10098000020EED6EA3C1E9FFA4C1EAFF840EEF6E73
:10099000010EC96FAFC1E9FFB0C1EAFF020EE9263F
:1009A000000EEA22480EEE6E020EED6EAFC1E9FFB8
:1009B000B0C1EAFFC80EEF6E12000101020EB86F5F
:1009C000AFC1E9FFB0C1EAFFEE52EF6AAFC1E9FF84
:1009D000B0C1EAFFC80EEF6EA5C1E9FFA6C1EAFFEC
:1009E000EE52080EEF6EA5C1E9FFA6C1EAFF020EA6
:1009F000E926000EEA22480EEE6E020EED6EA5C14B
:100A0000E9FFA6C1EAFFC80EEF6E1200D9CFE6FFDC
:100A1000E1CFD9FF020EE1260101080EBC5D000EF8
:100A2000BD590DE2BCC1DEFFBDC1DDFFB75102E122
:100A3000010E03D0B70506E1020EB76F03D0080E12
:100A4000DE6EDD6AAFC1E9FFB0C1EAFFEF92AFC170
:100A5000E9FFB0C1EAFFEF90AFC1E9FFB0C1EAFF23
:100A6000010EDB50EF12AFC1E9FFB0C1EAFFEE5259
:100A7000DFCFEFFF000EDB50BC5F010EDB50BD5B34
:100A8000480EC56F020EC66FBBB120D0D9CFE9FFAB
:100A9000DACFEAFFEE50ED1038E0B9C1F6FFBAC187
:100AA000F7FFB92B000EBA230800F550E66EC5C15A
:100AB000E9FFC6C1EAFFC52B000EC623E552E75089
:100AC000EF6EDF06010EE2E2DB06E0D7D9CFE9FFE9
:100AD000DACFEAFFEE50ED1018E0B9C1E9FFBAC174
:100AE000EAFFB92B000EBA23EF50E66EC5C1E9FF4D
:100AF000C6C1EAFFC52B000EC623E552E750EF6ED4
:100B0000DF06010EE3E2DB06E1D7020EE15C02E262
:100B1000E16AE552E16EE552E7CFD9FF1200D9CF85
:100B2000E6FFE1CFD9FF020EE126A3C1E9FFA4C190
:100B3000EAFFEE52EFCFDFFFDFCF10F010500101E0
:100B4000C15D000EC25902E2C1C1DFFFDF50106E6D
:100B5000116AE850C15DC16F1150C259C26F010ED8
:100B6000DB6ADF50F36E010EDBCFF4FFF350F45C71
:100B700016E2010EDB50EA6A480FE96E020EEA2225
:100B8000EF50E66EBEC1E9FFBFC1EAFFBE2B000E0B
:100B9000BF23E552E750EF6E010EDB2AE2D7000ECD
:100BA000D880C155000EC25527E2A5C1E9FFA6C1F4
:100BB000EAFFEE52080EEF6EA5C1E9FFA6C1EAFFFB
:100BC000020EE926000EEA22480EEE6E020EED6ECF
:100BD000A3C1E9FFA4C1EAFFEF50400B06E1A5C1A4
:100BE000E9FFA6C1EAFFC80E05D0A5C1E9FFA6C16D
:100BF000EAFF880EEF6E25D0A5C1E9FFA6C1EAFF86
:100C0000EE52080EEF6EA5C1E9FFA6C1EAFF020E83
:100C1000E926000EEA22400EEE6E020EED6EA5C130
:100C2000E9FFA6C1EAFF840EEF6EC351C41107E0CD
:100C300005D0C4C1FAFF0101C351F96EFADF010109
:100C4000C09F020EE15C02E2E16AE552E16EE5520C
:100C5000E7CFD9FF1200D9CFE6FFE1CFD9FFE652A7
:100C60000101BB8F030EE66EE66AE66A540EE66E7D
:100C70000F0EE66ECCEC15F0106E050EE15E105016
:100C8000DF6ADF50106E116A100E105C000E1158F2
:100C900010E2DF50040DF3CFE9FFF4CFEAFF000EBE
:100CA000E926020EEA22EE6AEE6AEE6AEE6ADF2AB0
:100CB000E8D7648C010EE66EE66AE66AA20EE66E7E
:100CC000010EE66ECCEC15F0106E050EE15E1050D4
:100CD000649C0101080EAF6F020EB06F000EA36F8F
:100CE000020EA46FA3C1A5F1A66F42C2A1F1A1514A
:100CF00002E1100E12D0010EE66EE66AA10EE66E5B
:100D0000010EE66E010EE66EE66AB2EC09F0106EB8
:100D1000060EE15E10500101200EA06FE552E55273
:100D2000E7CFD9FF1200D9CFE6FFE1CFD9FF020EFE
:100D3000E126000EDE6E020EDD6EFD0EDB50E824B5
:100D4000126EFE0EDB50040DF3501224040DF3500E
:100D5000106E116A020E0F0B05E0D890113210329E
:100D6000E806FBE1D89010361136D89010361136CF
:100D7000D9CFE9FFDACFEAFF1050EE261150ED226D
:100D8000DECFE9FFDDCFEAFFEF9EFD0EDB500AE18B
:100D9000FE0EEA6ADB34FE0BEA36E96EA70EE926A0
:100DA000010E09D0FE0EEA6ADB34FE0BEA36E96E6C
:100DB000AF0EE926010EEA22DECFEEFFDDCFEDFF1A
:100DC000DECFE9FFDDCFEAFFEF9CDECFE9FFDDCF2D
:100DD000EAFF040EE926000EEA22EF8C020EE15C27
:100DE00002E2E16AE552E16EE552E7CFD9FF120077
:100DF000D9CFE6FFE1CFD9FF020EE126FE0EDB5090
:100E0000116A530F106E0F0E112210C0DEFF11C0B9
:100E1000DDFFDECFE9FFDDCFEAFFFD0EDBCFEFFF29
:100E2000DBA407D0E66AFE0EDBCFE6FF7CDFE552EF
:100E3000E552FD0EDBA208D0010EE66EFE0EDBCF02
:100E4000E6FF71DFE552E552020EE15C02E2E16A83
:100E5000E552E16EE552E7CFD9FF1200D9CFE6FFA8
:100E6000E1CFD9FF020EE126FE0EDB5020E1A5C145
:100E7000E9FFA6C1EAFFEE52080EEF6EA5C1E9FF39
:100E8000A6C1EAFF020EE926000EEA22400EEE6E2F
:100E9000020EED6EA5C1E9FFA6C1EAFF8C0EEF6E52
:100EA000AFC1E9FFB0C1EAFF840EEF6E3BD0FD0E8B
:100EB000DB50E824126EFE0EDB50040DF3501224BA
:100EC000040DF3CF10F0F4CF11F0000E1026020E37
:100ED000112210C0DEFF11C0DDFF840EDECFE9FF5E
:100EE000DDCFEAFFE850EF12FD0EDB50E824126E72
:100EF000FE0EDB50040DF3501224010F040DF3CF4E
:100F000010F0F4CF11F0000E1026020E112210C0C6
:100F1000DEFF11C0DDFF840EDECFE9FFDDCFEAFF8B
:100F2000E850EF12020EE15C02E2E16AE552E16E86
:100F3000E552E7CFD9FF1200D9CFE6FFE1CFD9FFC5
:100F4000020EE126FD0EDB500AE0FE0EEA6ADB34FB
:100F5000FE0BEA36E96EAF0EE926010E09D0FE0E51
:100F6000EA6ADB34FE0BEA36E96EA70EE926010ECB
:100F7000EA22EECFDEFFEDCFDDFFD9CFE9FFDACFFA
:100F8000EAFFEE50ED1003E1F36AF46A44D0DECFDD
:100F9000E9FFDDCFEAFF020EE926000EEA22FB0E92
:100FA000DBCFEEFFFC0EDBCFEDFFDECFE9FFDDCFC9
:100FB000EAFFEE52FA0EDBCFEFFF400EDECFE9FF85
:100FC000DDCFEAFFE850EF16880EDECFE9FFDDCF78
:100FD000EAFFE850EF12FD0EDB500AE0FE0EEA6A6F
:100FE000DB34FE0BEA36E96EAF0EE926010E09D0BE
:100FF000FE0EEA6ADB34FE0BEA36E96EA70EE9263E
:10100000010EEA22EF74DECF10F0DDCF11F010C038
:10101000F3FF11C0F4FF020EE15C02E2E16AE55267
:10102000E16EE552E7CFD9FF1200D9CFE6FFE1CF5D
:10103000D9FF64A84ED0FE0EEA6ADB34FE0BEA3616
:10104000E96EAF0EE926010EEA22EE50EFCFEAFF7D
:10105000E96E400EEE16EE6AEE6AEE6AFE0EEA6A7F
:10106000DB34FE0BEA36E96EAF0EE926010EEA220A
:10107000EE50EFCFEAFFE96EEE7CFE0EEA6ADB345B
:10108000FE0BEA36E96EAF0EE926010EEA22EF7496
:10109000400E106EFE0EEA6ADB34FE0BEA36E96E95
:1010A000AF0EE926010EEA22EE50EFCFEAFFE96E1D
:1010B0001050EF16FE0EEA6ADB34FE0BEA36E96EDC
:1010C000AF0EE926010EEA22EE50EFCFEAFFE96EFD
:1010D000EF7CE552E7CFD9FF1200646A606A010134
:1010E000A06B12000101A05114E1646A606A160E3F
:1010F000616E0F019F0E5B6F7B0E606ED08EA284BF
:10110000A084F28E64B602D06486FCD70101010E81
:04111000A06F1200BA
:0C111400DACFE4FFE2CFDAFFE9CFE4FF1E
:10112000EACFE4FFF6CFE4FFF7CFE4FFF5CFE4FF2B
:10113000F3CFE4FFF4CFE4FFFACFE4FF00EE00F0DA
:10114000100EE80403E3EECFE4FFFBD700EE10F04F
:101150000A0EE80403E3EECFE4FFFBD7E65285EC8A
:1011600000F09D50100B0EE09E50100B0BE00101A3
:10117000DB51DC1107E005D0DCC1FAFF0101DB51D6
:10118000F96EFADFE55200EE19F00A0EE80403E307
:10119000E5CFEDFFFBD700EE0FF0100EE80403E300
:1011A000E5CFEDFFFBD7E5CFFAFFE5CFF4FFE5CFC5
:1011B000F3FFE5CFF5FFE5CFF7FFE5CFF6FFE5CF8E
:1011C000EAFFE5CFE9FFE5CFDAFF1100D8CFE4FF72
:1011D000E0CFE4FFE46EDACFE4FFE6529D50020B6D
:1011E0003DE09E50020B3AE00001C951000804E2C4
:1011F0000C0EC95D01E2C92B0101DF5105E0AC50C5
:10120000020B02E08A9CAB88B8AC8B72B850400BE2
:101210000CE10001CA5109E1AB50100B06E0C96BAB
:10122000010ECA6F0101D76BD86B0101320ED75D79
:10123000000ED85903E2D72B000ED823E80ED95D53
:10124000030EDA5904E2D92B000EDA2306D0D96B4B
:10125000DA6B0A0ED65D01E2D62B9E92E552E5CFFF
:10126000DAFFE550E5CFE0FFE5CFD8FF100023D847
:101270000101A05102E172EC08F00C0E0001C95D01
:1012800003E3C96B7A9A87DB0101DF510EE0AC50B2
:10129000020B0BE0DF6BDB51DC1107E005D0DCC19A
:1012A000FAFF0101DB51F96EFADFE8D97BD9E5D805
:1012B000E4EC13F0DDD70F0EC16EC26AA8EC0DF09E
:1012C00006D8A7EC0DF017EC00F08BEF14F000013E
:1012D0001F0E806F816B826B010EA36F1F0EA46FB8
:1012E000A56BA66B010EC76F7E6A7F6AF80E941617
:1012F0008B848B808B82FC0ECA140109CA6E1E0E71
:10130000CB6ECC6A9E929D829F92D08EF28CF28E92
:10131000F28EF28CF296F180CA8412000101DE6B2B
:10132000A40EE66E000EE66E3DEC12F0E552E552BC
:10133000800EE66E000EE66E3DEC12F0E552E552D0
:1013400012000101010EDE6F12001200120067EFA1
:1013500012F01200B5EC12F00101010EDE6F8B925B
:1013600012001200D9CFE6FFE1CFD9FFFD0EDBCF8F
:1013700008F0FE0EDBCF09F0720E081801E10950EB
:1013800033E0E868081802E17F0E09182BE0740EBC
:10139000081801E1095024E0750E081801E1095010
:1013A0001DE0730E081801E1095016E0030E08183D
:1013B00001E109500FE0020E081801E1095008E0B0
:1013C000010E081801E1095001E010D0C3DF0FD071
:1013D000C0DF0DD0BCDF0BD0B8DF09D09FDF07D056
:1013E000B0DF05D0B3DF03D0000001D000D0010E84
:1013F00000D0E552E7CFD9FF1200D9CFE6FFE1CF09
:10140000D9FF040EE126DE6ADD6A020EDB6A030EF6
:10141000DB6A020EDBCF10F0030EDBCF11F0FC0E07
:10142000DB50000111AE02D0D89003D0105C000E4A
:10143000115816E2020EDBCF10F0030EDBCF11F0D5
:10144000FD0EDB501024E96EFE0EDB501120EA6E1B
:10145000EF50DF1A020EDB2A030EDBE3DB2AD9D7BB
:10146000DF50106E040EE15C02E2E16AE552E16ECB
:101470001050E552E7CFD9FF12000001A65101013B
:10148000E35D03E10001CA511DE00101320ED75DA9
:10149000000ED85917E3E3C1A6F00001A551A65DDF
:1014A00002E1010EC76F0101D76BD86B030EE66E28
:1014B000020EE66E010EE66EC2DBE552E552E55223
:1014C000CBEF0CF08A50400B6CE1ABEC14F0000950
:1014D00001E112000101D76BD86B0001010ECA6F48
:1014E000C96BB0EC14F007C0E0F108C0E1F109C02D
:1014F000E2F10001A429116EA429136EA651A55D85
:1015000002E1C75102E0000E01D0010E1302F3CF39
:1015100012F0A551A65DA415F324115C106E020E05
:10152000105C08E2E3C1A6F0A551A65D3AE1010E08
:10153000C76F1200A6510101E35D10E1600E0001CA
:10154000C825E66E28DBE552E66EA40EE66E000EB8
:10155000E66E41EC0EF0E552E552E552E0C1E6FFE1
:10156000A40EE66E000EE66E41EC0EF0E552E5527A
:10157000E5520101E3510001A65DA415106E0101C1
:10158000E3290001A415EA6AA70FE96E000EEA221A
:10159000EF500F0B030F105C04E3A6C0E3F1060E3F
:1015A000C96F1200D9CFE6FFE1CFD9FFE6520001A3
:1015B000A529A415EA6AA70FE96E000EEA22EF50EA
:1015C0000F0B030FDF6E0201E05153E10001A4296C
:1015D000126EA651A55D02E1C75102E0000E01D0D6
:1015E000010E1202F3CF11F0A551A65DA415F3244C
:1015F000106E030E105C3DE3A429156EA651A55D87
:1016000002E1C75102E0000E01D0010E1502F3CF36
:1016100014F0A551A65DA415F324136EDF50135CDE
:1016200028E3DFCFE6FFA5C0E6FF600EE66E000E02
:10163000E66EA40EE66E000EE66E1EEC10F0106E66
:10164000060EE15E1050DFCFE6FF600EE66E000E84
:10165000E66E46EC13F0E552E552E552DFCFE6FFC9
:10166000A40EE66E000EE66E4DEC0FF0E552E5526C
:10167000E552E552E552E7CFD9FF1200D9CFE6FF98
:10168000E1CFD9FF040EE126200E0101E76EA0197B
:10169000E8AE02D0E73402D0E750A05D01E26BD1A2
:1016A0006450020B01E067D10201E05101E063D117
:1016B00000018251815D0DE1A3510BE1E4C182F093
:1016C0008251815D02E1010EC76F070EE66E060EC4
:1016D000FED08029106E8029126E8251815D02E158
:1016E000A35102E0000E01D0010E1202F3CF11F05F
:1016F0008151825D8015F324105CE66E800EE66EEB
:10170000000EE66EE9EC12F0E552E552E552E76EA6
:10171000020EE7CFDBFFDB5018E10A0E0101D65DB8
:1017200001E229D1000182510101E45D01E123D1EF
:10173000E4C182F0D66B00018151825D02E1010EAD
:10174000A36FE66A010EE66EC4D00101D66B0101FB
:10175000E4510001825D8015106E030E105C01E201
:101760000AD10101E4510001825D8015116E010171
:10177000E42900018015EA6A830FE96E000EEA226F
:10178000EF500F0B030F115C01E2F5D0010EDB6A85
:10179000030EDB6A080EF36E010EDBCFF4FFF3508D
:1017A000F45C22E2010EDBCF10F00101E451EA6AA1
:1017B000830FE96E000EEA22EF5010C0E7FFE752F8
:1017C00004E0E8427F0BE706FCE1010B0AE0030EB0
:1017D000DB5002E0000E01D0010EE76E030EE7CFF2
:1017E000DBFF010EDB2AD6D7030EDB501DE0010123
:1017F000E42900018015EA6A830FE96E000EEA22EF
:10180000EF500F0B030FE66EE4C1E6FF800EE66EAD
:10181000000EE66E7CEC10F0E552E552E552E55222
:10182000090EE66E080E53D0010EDB6ADF6A010175
:10183000E42900018015EA6A830FE96E000EEA22AE
:10184000EF500F0B030FFE0FF36E010EDBCFF4FF13
:10185000F350F45C11E2010EDB500101E425010FAD
:1018600000018015EA6A830FE96E000EEA22EF504C
:10187000DF1A010EDB2ADBD7010EDB500101E42564
:10188000010F00018015EA6A830FE96E000EEA225B
:10189000EF50DF5C24E00101E42900018015EA6AD1
:1018A000830FE96E000EEA22EF500F0B030FE66E76
:1018B000E4C1E6FF800EE66E000EE66E7CEC10F0F2
:1018C000E552E552E552E552060EE66E070EE66E6B
:1018D000010EE66EB4D9E552E552E5524CD08B705C
:1018E0000101E451EA6A830FE96E000EEA22EF502B
:1018F000E00BE838E840030B01082BE1E429000184
:101900008015EA6A830FE96E000EEA22EF500F0B92
:10191000030FE66EE4C1E6FF38D8E552E552010157
:10192000E42900018015EA6A830FE96E000EEA22BD
:10193000EF500F0B030FE66EE4C1E6FF800EE66E7C
:10194000000EE66E7CEC10F0E552E552E552E552F1
:10195000FED6E42900018015EA6A830FE96E000EC5
:10196000EA22EF500F0B030F0101E425000180155F
:101970000101E46FECD6040EE15C02E2E16AE5529B
:10198000E16EE552E7CFD9FF1200D9CFE6FFE5526D
:10199000E7CFD9FF1200D9CFE6FFE1CFD9FFE6525A
:1019A00000018151825D8015DF6EAB98030EDF5C14
:1019B00029E381298015EA6A830FE96E000EEA2285
:1019C000EF500F0B030FDF5C1DE381298015010130
:1019D000DD6F8A8C100EDB6F1A0EDC6FDF6B00017F
:1019E0008151EA6A830FE96E000EEA22EF50E66E3B
:1019F000010EE66EE66A9AEC14F0E552E552E55205
:101A00009D8801D044D8E552E552E7CFD9FF1200B6
:101A10000101DD51EA6A830FE96E000EEA22EF5000
:101A2000E66E000EE66EE66A9AEC14F0E552E552B8
:101A3000E5520101DD29000180150101DD6F000182
:101A400081298015EA6A830FE96E000EEA22EF50C1
:101A50000F0B030F812580150101DD5D11E1DDC153
:101A600081F000018251815D02E1010EA36F01014D
:101A70008E0EDB6F1A0EDC6F010EDF6F9D98120069
:101A8000100EDB6F1A0EDC6FDF6B9D881200CFD853
:101A9000AEEF0DF0D9CFE6FFE1CFD9FF020EE12680
:101AA000DE6ADD6ADECF10F0DDCF11F0FD0EDBCF98
:101AB000E9FFFE0EDBCFEAFFEF50126E136A135000
:101AC0001118E8AE02D0113404D01050125C11503D
:101AD000135822E3FD0EDBCFE9FFFE0EDBCFEAFF5A
:101AE000030EE926000EEA22DE50E924E96EDD50FD
:101AF000EA20EA6EEF50E66EDECFE9FFDDCFEAFFC7
:101B0000600EE926000EEA22E552E750EF6EDF2A6A
:101B1000010EC8E3DB2AC6D7FD0EDBCFE9FFFE0EC0
:101B2000DBCFEAFFEF28E66E600EE66E000EE66E93
:101B300046EC13F0E552E552E552020EE15C02E29A
:101B4000E16AE552E16EE552E7CFD9FF12001200DB
:101B50000001C86B010EC96FCA6B12000001C96B8E
:101B6000CA6B8A8C01011A0EDB6F1C0EDC6F9D980C
:101B7000400E0001C825E66E0ED8E552E66E010E55
:101B8000E66EE66A9AEC14F0E552E552E552010180
:101B9000010EDF6F1200D9CFE6FFE1CFD9FF030EB0
:101BA000E126020EDB6AFE0EDB50E76E010EE7CF88
:101BB000DBFFDF6A070EDF5C18E2FE0EDB50010B75
:101BC00001080AE1020EDB5002E0000E01D0010E16
:101BD000E76E020EE7CFDBFFFE0EDB407F0BE76E0A
:101BE000FE0EE7CFDBFFDF2AE5D7020EDB50800DCC
:101BF000010EDBCFE7FFF350E712010EE7CFDBFF6B
:101C0000DB50106E030EE15C02E2E16AE552E16E28
:101C10001050E552E7CFD9FF12008A9C0001010E57
:101C2000C96F81CFCBF00101DB6BDC6B12000001CF
:101C3000C82B200EC85D02E3010EC86F1200D9CF79
:101C4000E6FFE1CFD9FFFE0EDBCF60F0FD0EDBCF6C
:101C500061F0FC0EDBCF62F00201E0510DE1030EFA
:101C6000E66E600EE66E000EE66E46EC13F0E55290
:101C7000E552E552010E01D0000EE552E7CFD9FF43
:021C8000120050
:0E1C8200D9CFE6FFE1CFD9FFFD0EDBCFE9FFA2
:101C9000FE0EDBCFEAFF030EE926000EEA22E9CFB3
:101CA00010F0EACF11F0FD0EDBCFE9FFFE0EDBCF27
:101CB000EAFF020EE926000EEA22EF501024E96E38
:101CC000000E1120EA6EFC0EDBCFEFFFFD0EDBCF26
:101CD000E9FFFE0EDBCFEAFFEFCF10F0FD0EDBCF0A
:101CE000E9FFFE0EDBCFEAFF020EE926000EEA2234
:101CF000EF281014E66EFD0EDBCFE9FFFE0EDBCF02
:101D0000EAFF020EE926000EEA22E552E750EF6EE6
:101D1000FD0EDBCFE9FFFE0EDBCFEAFF230EE92647
:101D2000000EEA22EF6AE552E7CFD9FF1200D9CFC1
:101D3000E6FFE1CFD9FFE652FD0EDBCFE9FFFE0E55
:101D4000DBCFEAFFEF28146EFD0EDBCFE9FFFE0EBE
:101D5000DBCFEAFFEE52EFCF13F0FD0EDBCFE9FF52
:101D6000FE0EDBCFEAFF020EE926000EEA22EF505C
:101D7000135C0CE1FD0EDBCFE9FFFE0EDBCFEAFFCB
:101D8000230EE926000EEA22EF5002E0000E01D0F9
:101D9000010E1402FD0EDBCFE9FFFE0EDBCFEAFFE2
:101DA000EFCF11F0FD0EDBCFE9FFFE0EDBCFEAFF38
:101DB000020EE926000EEA22EFCF10F0FD0EDBCF77
:101DC000E9FFFE0EDBCFEAFFEE52EF50105C11147C
:101DD000F32402E1000E5CD0FD0EDBCFE9FFFE0E26
:101DE000DBCFEAFF030EE926000EEA22E9CF10F06E
:101DF000EACF11F0FD0EDBCFE9FFFE0EDBCFEAFFED
:101E0000EE52EF501024E96E000E1120EA6EEFCF73
:101E1000DFFFFD0EDBCFE9FFFE0EDBCFEAFFEFCFEA
:101E200010F0FD0EDBCFE9FFFE0EDBCFEAFFEE5236
:101E3000EF281014E66EFD0EDBCFE9FFFE0EDBCFC0
:101E4000EAFFEE52E552E750EF6EFD0EDBCFE9FF01
:101E5000FE0EDBCFEAFFEE52EFCF10F0FD0EDBCF30
:101E6000E9FFFE0EDBCFEAFF020EE926000EEA22B2
:101E7000EF50105C0CE1FD0EDBCFE9FFFE0EDBCF77
:101E8000EAFF230EE926000EEA22010EEF6EDF5074
:101E9000E552E552E7CFD9FF1200D9CFE6FFE1CFF7
:101EA000D9FFE652FD0EDBCFE9FFFE0EDBCFEAFFE6
:101EB000EF28146EFD0EDBCFE9FFFE0EDBCFEAFF4D
:101EC000EE52EFCF13F0FD0EDBCFE9FFFE0EDBCFBE
:101ED000EAFF020EE926000EEA22EF50135C0CE145
:101EE000FD0EDBCFE9FFFE0EDBCFEAFF230EE92676
:101EF000000EEA22EF5002E0000E01D0010E1402A3
:101F0000FD0EDBCFE9FFFE0EDBCFEAFFEFCF11F0D6
:101F1000FD0EDBCFE9FFFE0EDBCFEAFF020EE92666
:101F2000000EEA22EFCF10F0FD0EDBCFE9FFFE0E30
:101F3000DBCFEAFFEE52EF50105C1114F324DF6E9A
:101F4000FC0EDB50D880DF5403E2FC0EDB50DF6E6A
:101F5000FD0EDBCFE9FFFE0EDBCFEAFFEFCF10F087
:101F6000FD0EDBCFE9FFFE0EDBCFEAFFEE52EF50B6
:101F7000DF241014E66EFD0EDBCFE9FFFE0EDBCF93
:101F8000EAFFEE52E552E750EF6EFD0EDBCFE9FFC0
:101F9000FE0EDBCFEAFFEE52EFCF10F0FD0EDBCFEF
:101FA000E9FFFE0EDBCFEAFF020EE926000EEA2271
:101FB000EF50105C0CE1FD0EDBCFE9FFFE0EDBCF36
:101FC000EAFF230EE926000EEA22010EEF6EE5522B
:101FD000E552E7CFD9FF1200D9CFE6FFE1CFD9FF15
:101FE000E652FD0EDBCFE9FFFE0EDBCFEAFFEFCFBF
:101FF00010F0FC0EDBCFE6FFFD0EDBCFE9FFFE0E9F
:10200000DBCFEAFFEE52EF50E552E7241014DF6E0B
:10201000FD0EDBCFE9FFFE0EDBCFEAFF030EE92664
:10202000000EEA22DF50E924E96E000EEA20EA6E93
:10203000EF50E552E552E7CFD9FF1200D9CFE6FFC6
:10204000E1CFD9FF020EE126DE6ADD6ADECF10F0B5
:10205000DDCF11F0F90EDB50000111AE02D0D890A7
:1020600003D0105C000E11583DE2FD0EDBCFE9FFFE
:10207000FE0EDBCFEAFF030EE926000EEA22E9CFCF
:1020800012F0EACF13F0FA0EDB50186E196ADE5028
:102090001824166EDD501920FD0EDBCFE9FFFE0E71
:1020A000DBCFEAFFEF501614146E156A1250142499
:1020B000E96E13501520EA6EEF50E66EFB0EDBCF93
:1020C00010F0FC0EDBCF11F0DE501024E96EDD5075
:1020D0001120EA6EE552E750EF6EDF2A010EB6E3FB
:1020E000DB2AB4D7020EE15C02E2E16AE552E16E5E
:1020F000E552E7CFD9FF1200D9CFE6FFE1CFD9FFF4
:10210000020EE126FC0EDB50DE6EDD6AFD0EDBCF3B
:10211000E9FFFE0EDBCFEAFFEFCF12F0FB0EDBCFC5
:10212000E6FFFD0EDBCFE9FFFE0EDBCFEAFF020E7E
:10213000E926000EEA22EF50E552D880E754121447
:10214000116AE850DF1803E11150DE52DD1866E035
:10215000FD0EDBCFE9FFFE0EDBCFEAFF030EE92623
:10216000000EEA22E9CF14F0EACF15F0FB0EDB50A7
:10217000E76E000EDFCF18F0010EDBCF19F0E7504D
:102180001826000E1922FD0EDBCFE9FFFE0EDBCF75
:10219000EAFFEF5000011814166E176A1450162447
:1021A000E96E15501720EA6EEF50E66EFD0EDBCF9C
:1021B000E9FFFE0EDBCFEAFF030EE926000EEA225E
:1021C000E9CF10F0EACF11F0FD0EDBCFE9FFFE0EF4
:1021D000DBCFEAFFEF50126E136A000EDFCF08F07C
:1021E000010EDBCF09F012C00DF013C00EF0A6EC0B
:1021F00015F013AE04D0046C051E000E052210501D
:102200000424E96E11500520EA6EE552E750EF6EA6
:10221000DF2A010E01E27AD7DB2A78D7FD0EDBCF69
:10222000E9FFFE0EDBCFEAFFEF50E76E000EDFCFD7
:1022300010F0010EE7501016116AFD0EDBCFE9FF1A
:10224000FE0EDBCFEAFF020EE926000EEA2210C0E6
:10225000EFFFFD0EDBCFE9FFFE0EDBCFEAFFEE5214
:10226000EFCF10F0FD0EDBCFE9FFFE0EDBCFEAFF74
:10227000020EE926000EEA22EF50105C0CE1FD0E82
:10228000DBCFE9FFFE0EDBCFEAFF230EE926000ECF
:10229000EA22010EEF6E020EE15C02E2E16AE55213
:1022A000E16EE552E7CFD9FF1200D9CFE6FFE1CFCB
:1022B000D9FF020EE126FD0EDBCFE9FFFE0EDBCFDC
:1022C000EAFFEF28156EFD0EDBCFE9FFFE0EDBCF38
:1022D000EAFFEE52EFCF14F0FD0EDBCFE9FFFE0E6A
:1022E000DBCFEAFF020EE926000EEA22EF50145C73
:1022F0000CE1FD0EDBCFE9FFFE0EDBCFEAFF230E84
:10230000E926000EEA22EF5002E0000E01D0010E95
:102310001502FD0EDBCFE9FFFE0EDBCFEAFFEFCFAC
:1023200012F0FD0EDBCFE9FFFE0EDBCFEAFF020E5F
:10233000E926000EEA22EFCF11F0FD0EDBCFE9FF18
:10234000FE0EDBCFEAFFEE52EF50115C1214F324C5
:10235000106EFA0EDB50105C01E285D0FD0EDBCF73
:10236000E9FFFE0EDBCFEAFFEFCF10F0FA0EDBCF76
:10237000E6FFFD0EDBCFE9FFFE0EDBCFEAFFEE52FC
:10238000EF50E552D880E7541014E66EFD0EDBCF17
:10239000E9FFFE0EDBCFEAFFEE52E552E750EF6EAB
:1023A000DE6ADD6ADECF10F0DDCF11F0FA0EDB5011
:1023B000000111AE02D0D89003D0105C000E11586D
:1023C00043E2FB0EDBCF18F0FC0EDBCF19F0DE5042
:1023D0001824E96EDD501920EA6EEF50E66EFD0E0E
:1023E000DBCFE9FFFE0EDBCFEAFF030EE926000E8E
:1023F000EA22E9CF10F0EACF11F0FD0EDBCFE9FFC2
:10240000FE0EDBCFEAFFEE52EF50166E176ADE507B
:102410001624146EDD501720FD0EDBCFE9FFFE0EF3
:10242000DBCFEAFFEF501414126E136A105012241F
:10243000E96E11501320EA6EE552E750EF6EDF2A85
:10244000010EB0E3DB2AAED7FA0EDB5000080BE238
:10245000FD0EDBCFE9FFFE0EDBCFEAFF230EE92600
:10246000000EEA22EF6A020EE15C02E2E16AE55246
:10247000E16EE552E7CFD9FF1200D9CFE6FFE1CFF9
:10248000D9FFFD0EDBCFE9FFFE0EDBCFEAFF020E28
:10249000E926000EEA22EF50E66EFD0EDBCFE9FFE3
:1024A000FE0EDBCFEAFFEE52E552E750EF6EFD0E77
:1024B000DBCFE9FFFE0EDBCFEAFF230EE926000E9D
:0E24C000EA22010EEF6EE552E7CFD9FF1200BF
:0224CE00020109
:1024D00040511F0B010801E012004051600BE8421F
:1024E000E842E842E842E842010801E012004451B3
:1024F00003E0440501E012004151220A31E0030AE1
:1025000024E0010A15E0210A0DE0010A01E01200B1
:102510000101F00EB96F020EBA6F080EBC6FBD6BF1
:10252000BB8121D00101F00EB96F020EBA6F1BD032
:1025300046C2C1F147C2C2F10101D80EBE6F020E00
:10254000BF6FC36BC46BC08F12000101D80EB96F8F
:10255000020EBA6F070EBC6FBD6BC10EBB6F1200CF
:1025600042C2EBF20101BB8F12000201D86B4B0E8D
:10257000D96FDA6BDB6BDC6BDD6B080EDE6F020193
:10258000E06BDF6B1A0EE66E020EE66EF8EC06F0FC
:10259000E552E5521E0EE66E030EE66EF8EC06F00E
:1025A000E552E552400EE66E580EE66E020EE66EFD
:1025B000E66A030EE66E9CEC07F0106E050EE15E17
:1025C0001050F3CFE7F2F4CFE8F20201E96BEA6BC7
:1025D0001200D9CFE6FFE1CFD9FF0201DF6BE7514F
:1025E000E81102E1000E08D0E7C2E9FFE8C2EAFF05
:1025F000EF50800B01E0010E000942E1FC0EDBCF41
:1026000010F0E7C2E9FFE8C2EAFFEE52EF50D880CF
:10261000105408E2E7C2E9FFE8C2EAFFEE52FC0EFE
:10262000EFCFDBFFDF6BFC0EDB50DF5D16E2DF512F
:10263000EA6A580FE96E020EEA22EF50E66EFD0ECE
:10264000DBCFE6FFFE0EDBCFE6FF41EC0EF0E552FE
:10265000E552E5520201DF2BE6D7400EE66E580E3A
:10266000E66E020EE66EE66A030EE66E9CEC07F07E
:10267000106E050EE15E1050F3CFE7F2F4CFE8F2F2
:102680000201DF51E552E7CFD9FF1200D9CFE6FFB3
:10269000E1CFD9FFA0940201E0510CE1FD0EDBCFA8
:1026A000E1F2FE0EDBCFE2F2FC0EDBCFE5F2010E33
:1026B000E66FE06FA084E552E7CFD9FF1200D9CFD3
:1026C000E6FFE1CFD9FF030EE126A0940201E0511D
:1026D0002DE1DF6AFD0EDBCF08F0FE0EDBCF09F047
:1026E000DE5208C0DEFF09C0DDFFDD52DF2ADF5009
:1026F000106E116AFF0E101802E111500BE0010E6E
:10270000DBCFE9FFDB2A020EDBCFEAFF01E3DB2AA6
:10271000EF50ECE1FD0EDBCFE1F2FE0EDBCFE2F29B
:10272000DFCFE5F20201010EE66FE06FA084030E39
:10273000E15C02E2E16AE552E16EE552E7CFD9FFE2
:102740001200D9CFE6FFE1CFD9FF030EE126A09416
:102750000201E0512EE1DF6AFD0EDBCF08F0FE0E34
:10276000DBCF09F0DE5208C0DEFF09C0DDFFDD521D
:10277000DF2ADF50106E116AFF0E101802E11150AF
:102780000CE0010EDBCFF6FFDB2A020EDBCFF7FFFA
:1027900001E3DB2A0800F550EBE1FD0EDBCFE1F2AF
:1027A000FE0EDBCFE2F2DFCFE5F20201E66B010EB7
:1027B000E06FA084030EE15C02E2E16AE552E16EA3
:1027C000E552E7CFD9FF1200D9CFE6FFE1CFD9FF1D
:1027D000020EE126A0940201E951EA1102E1000E85
:1027E00008D0E9C2E9FFEAC2EAFFEF50800B01E03E
:1027F000010E000906E1030EE05D01E1E06BE0512E
:1028000002E1A0847ED0020EE05D16E1E66A000ED1
:10281000E66EE66A010EE66E030EE66E9CEC07F0CD
:10282000106E050EE15E1050F3CFE9F2F4CFEAF23C
:102830000201030EE06F64D0E00562E1400E106E0D
:10284000116AE551105C000E115803E2400EDF6E74
:1028500002D0E5C2DFFFDF50E55DE56F980EE36F64
:10286000020EE46F010EDFCFDBFFE65116E1010E31
:10287000DB5028E0E1C2F6FFE2C2F7FF0800F550A6
:10288000E3C2E9FFE4C2EAFFEF6EE32B000EE423AC
:10289000E12BE223010EDB06EAD7010EDB5012E04A
:1028A000E1C2E9FFE2C2EAFFEF50E3C2E9FFE4C29E
:1028B000EAFFEF6EE32B000EE423E12BE223010E8F
:1028C000DB06EBD70201E55107E1400EDF5C02E1D8
:1028D000020E01D0030EE06FDFCFE6FF980EE66E2A
:1028E000020EE66E010EE66E030EE66E9CEC07F03D
:1028F000106E050EE15E1050F3CFE9F2F4CFEAF26C
:10290000A084020EE15C02E2E16AE552E16EE5526A
:06291000E7CFD9FF120021
:0A291600938A939C939EAC94B896AC
:102920000B0EAF6E8A9CAC98AB8EAC8CAB8CAB981C
:10293000AC8A1200D9CFE6FFE1CFD9FFFD0EDB5004
:10294000E8B0AC80E8A0AC90FC0EDB50AD6EE55278
:10295000E7CFD9FF12009E50200B01E0010E1200BC
:10296000D9CFE6FFE1CFD9FF030EE126AB50040B30
:1029700001E0010EE76E020EE7CFDBFFAB50010B6B
:10298000E76E010EE7CFDBFFAE50DF6EABB2AB9868
:102990009E9ADFCF10F0010EDBCF11F0020EDBCFDD
:1029A00012F010C007F011C008F012C009F0030EB9
:1029B000E15C02E2E16AE552E16EE552E7CFD9FF60
:0229C000120003
:0E29C200200EF66E000EF76E000EF86E01018C
:1029D0000900F550EA6F0900F550EB6F03E1EA6773
:1029E00001D03DD00900F550E56F0900F550E66FC4
:1029F0000900F550E76F09000900F550E96E09007C
:102A0000F550EA6E090009000900F550E86F090069
:102A1000F550E96F09000900F6CFECF1F7CFEDF1C1
:102A2000F8CFEEF1E5C1F6FFE6C1F7FFE7C1F8FF29
:102A30000101E85302E1E95307E00900F550EE6EA9
:102A4000E807F8E2E907F9D7ECC1F6FFEDC1F7FFB7
:102A5000EEC1F8FF0101EA07000EEB5BBFD71200E1
:102A60001201000202000008D8040A00000101025D
:102A7000000109024300020100C032090400000104
:102A800002020100052400100104240202052406AC
:102A90000001052401000107058203080002090462
:102AA0000100020A000000070503024000000705BC
:102AB00083024000000403090416034B004D005A32
:102AC000002000420072006E006F00200049001AD2
:102AD0000375004C00490020002D0020006D0061AE
:102AE000007300740065007200722AB52AB92ACFFB
:012AF0002ABB
:0E2AF200D9CFE6FFE1CFD9FFA66AFE0EDB507A
:102B0000A96EA680A850E552E7CFD9FF1200D9CF11
:102B1000E6FFE1CFD9FFE652F250DF6EA66AA68447
:102B2000FE0EDB50A96EFD0EDB50A86EF29E550E18
:102B3000A76EAA0EA76EA682DF50F26EA1A8FED7DE
:0C2B4000A694E552E552E7CFD9FF120041
:042B4C00006A0EAE5F
:102B5000AFEF15F00D6C0E1EE86A0E22001E09AED6
:102B6000B7EF15F0086C091EE86A0922001EE6ECB2
:102B700015F009BEC7EF15F000AE000C086C091E79
:102B8000E86A0922046C051EE86A0522000C00BEF2
:082B9000BEEF15F00188FF0CF7
:082B9800FE0EE3CFE9FFFF0E82
:102BA000E3CFEAFFE9CFF3FFEACFF4FFFB0EE350F8
:102BB00003E1FC0EE35009E0FB0EE30602E2FC0E2B
:0C2BC000E306FD0EE350EE6EF1D71200AC
:042BCC00056A046A28
:102BD000100EE76ED89008360936043605360D50CB
:102BE000045C0E50055805E30D50045E0E50055A66
:082BF000082AE72EF0D71200BD
:082BF800000EF36E00EE00F088
:102C0000030E01D81200EA6002D0EE6AFCD7F3503E
:082C1000E9601200EE6AFCD736
:082C180011EE00F021EE00F0C6
:102C2000F86A019CE1EC14F01AEC16F037EC09F0AC
:042C3000FBD71200BC
:022C340012008C
:0A2C36000000000000000000000094
:052C400000000000008F
:020000040030CA
:0100000020DF
:0100010032CC
:010002000EEF
:010003001EDE
:01000500807A
:010006008D6C
:0100080003F4
:01000900C036
:01000A0003F2
:01000B00E014
:01000C0003F0
:01000D0040B2
:00000001FF
