:020000040000FA
:060000009FEF13F0120057
:06000800BBEF0CF012003A
:0600180006EF0DF01200DE
:0E00200001005C270000F8020000080000004C
:02002E00D9CF28
:10003000E6FFE1CFD9FFE652A0940F015F6B626A41
:10004000160E616E9F0E5B6F7B0E606E648C5C6B38
:10005000030EE66EE66AE66A540EE66E0F0EE66E74
:100060005FEC13F0106E050EE15E1050649CDF6AC9
:10007000DF50106E116A100E105C000E115810E265
:10008000DF50040DF3CFE9FFF4CFEAFF000EE926BD
:10009000020EEA22EE6AEE6AEE6AEE6ADF2AE8D71C
:1000A0000F01160E536F62A602D06296FCD70101B3
:1000B000BB6BC06BC16BC26B6498DF6A040EDF5C04
:1000C00018E2EA6ADF34FE0BEA36E96EAF0EE92683
:1000D000010EEA22EE6AED6AEA6ADF34FE0BEA36C6
:1000E000E96EA70EE926010EEA22EE6AED6ADF2A22
:1000F000E5D70101080EAF6F020EB06FA16BA06BC8
:10010000E552E552E7CFD9FF1200D9CFE6FFE1CFA4
:10011000D9FFE6520101A00507E164BA05D0626A81
:1001200060806088020EA06F6250040B05E0605092
:10013000040B02E06294B9D864B260D06250010B43
:1001400016E06050010B13E072DFD08EA284A08411
:10015000F28E0101040EA06F0201400E026F020E2A
:10016000036F080E016F006B8C0E001362906250DB
:10017000100B05E06050100B02E085D862986250C9
:10018000400B13E06050400B10E0010EE66EE66A93
:10019000000EE66EE66A730EE66EE66A81EC0DF01E
:1001A000106E060EE15E1050629C6250200B04E05F
:1001B0006050200B01E04DD86250020B14E06050FB
:1001C000020B11E0010EE66EE66A000EE66EE66ACC
:1001D000E6687F0EE66E81EC0DF0106E060EE15EB5
:1001E00010500F015F6B040E0101E76EA019E8AE1D
:1001F00002D0E73402D0E750A05D02E2A19424D0FF
:1002000060A621D0DF6A040EDF5C1DE262A61BD06F
:1002100063CFC8F16296780E0101C81502E15AD881
:1002200010D0000EE66EE66AC80EE66E010EE66EAF
:10023000720EE66EE66A81EC0DF0106E060EE15E5F
:100240001050DF2AE0D7A194E552E552E7CFD9FF5D
:1002500012000F0153A115D0A3C1E9FFA4C1EAFF09
:10026000EF5080080DE1AFC1E9FFB0C1EAFFEF50E8
:10027000840806E1A3C1E9FFA4C1EAFF8C0EEF6E7A
:100280005391629A1200608462986482000EE66E56
:10029000E66AE66EE66A750EE66EE66A81EC0DF0D9
:1002A000106E060EE15E10501200000EE66EE66A59
:1002B000E66EE66A740EE66EE66A81EC0DF0106E8C
:1002C000060EE15E10506492609462A402D06294C3
:1002D000FCD71200D9CFE6FFE1CFD9FFE652FD0EE1
:1002E0000101C8155AE17E0EC815E8407F0B040DC8
:1002F000F3CFA3F1F4CFA4F1000EA327020EA423A1
:10030000A3C1A5F1A4C1A6F1A575A3C1E9FFA4C12C
:10031000EAFFEF503C0BE842E8420D083CE1A3C184
:10032000E9FFA4C1EAFF020EE926000EEA22EECFA1
:1003300010F0EFCF11F0480E10182BE1020E11183B
:1003400028E1A3C1E9FFA4C1EAFF020EE926000EDD
:10035000EA22400EEE6E020EED6EDF6ADF50106E86
:10036000116A080E105C000E115813E2DF50EA6AA1
:10037000480FE96E020EEA22EF50E66EDF50EA6A9D
:10038000400FE96E020EEA22E552E750EF6EDF2AD7
:10039000E5D70DD807D02ED805D0FD0EC815040816
:1003A00001E14ED8E552E552E7CFD9FF1200AFC1C7
:1003B000E9FFB0C1EAFFEF50800B05E0AFC1E9FFF4
:1003C000B0C1EAFFEF6A0101B76BB86BBC6BBD6BE4
:1003D000BB6BB5D8000EE66EE66AE66EE66A030E03
:1003E000E66EE66A81EC0DF0106E060EE15E1050CE
:1003F00034EF04F0020E0101B85D02E18FEF05F069
:100400006CD80101C9511AE1A5C1E9FFA6C1EAFFF3
:10041000EE52080EEF6EA5C1E9FFA6C1EAFF020E7B
:10042000E926000EEA22400EEE6E020EED6EA5C128
:10043000E9FFA6C1EAFF8C0EEF6E1200C96B120035
:10044000D9CFE6FFE1CFD9FFE652AFC1E9FFB0C196
:10045000EAFFEF50400B01E0010EDF6E0101AF75C6
:10046000080EA05D0CE142C25CFF0F015C51000868
:1004700003E20101100E02D00101040EA06FB805C5
:1004800026E1AFC1E9FFB0C1EAFF020EE926000E86
:10049000EA22480EEE6E020EED6EB8DA020E01018F
:1004A000B75D06E1AFC1E9FFB0C1EAFF840E0DD030
:1004B000DF5006E1AFC1E9FFB0C1EAFFC80E05D0C9
:1004C000AFC1E9FFB0C1EAFF880EEF6E01D005D8D9
:1004D000E552E552E7CFD9FF1200D9CFE6FFE1CFD1
:1004E000D9FF020EE1260101B86BAFC1E9FFB0C12F
:1004F000EAFFEF6A040EAF19106EB0C111F0DE6EA4
:10050000B0C1DDFFDECFE9FFDDCFEAFFEF6AC0AFAC
:100510000CD0C351C41107E005D0C4C1FAFF0101DA
:10052000C351F96EFADF0101C09F020EE15C02E2E5
:10053000E16AE552E16EE552E7CFD9FF1200020110
:100540004051600BE842E842E842E842E8420009D4
:1005500001E0120041510C0A50E00B0A3FE00C0A86
:1005600031E0010A22E00B0A1EE0020A1CE0030A45
:1005700018E0080A10E0010A0CE00F0A08E0030A7C
:1005800001E012000101BB8F080EA06F120083EF83
:1005900003F02BEF06F00101A10EB96F010EBA6F47
:1005A0000CD0DAEF03F0FEEF02F044510101B96F15
:1005B000BA6BA20EB927010EBA23BB81010EBC6F24
:1005C000BB8F12000101BB8F02014451EA6AA20FE6
:1005D000E96E010EEA2242C2EFFF1200000EE66E43
:1005E000E66AE66EE66A020EE66EE66A81EC0DF0F9
:1005F000106E060EE15E105012001200D9CFE6FF19
:10060000E1CFD9FF040EE1260201420510E140517D
:100610001F0B00090CE10101BB8F030E0201415DBC
:1006200004E10101010EC76F02D00101C76B020195
:1006300042515FE140511F0B02085BE144510F0B37
:10064000000957E00101BB8F020144BF0BD04451A8
:100650000F0BE96EEA6AD890E936EA36A70EE9266A
:10066000010E0AD044510F0BE96EEA6AD890E936C0
:10067000EA36AF0EE926010EEA22EECFDEFFEDCF1D
:10068000DDFF030E415D06E1DECFE9FFDDCFEAFFCE
:10069000840E2ED044510F0B116A530F106E0F0EA3
:1006A0001122020E10C0DBFF030E11C0DBFF020E91
:1006B000DBCFE9FF030EDBCFEAFFEF9044AF0CD0B6
:1006C000DECFE9FFDDCFEAFFEF6ADF74DECFE9FFBF
:1006D000DDCFEAFF400E0CD0DECFE9FFDDCFEAFF31
:1006E000880EEF6EDF74DECFE9FFDDCFEAFFC80EC4
:1006F000EF6E040EE15C02E2E16AE552E16EE55262
:10070000E7CFD9FF1200800E0201405D52E10101E6
:10071000C00EBB6F02014351030A29E0010A09E040
:10072000030A45E101017A0EB96F250EBA6F120E68
:1007300038D04251F66EF76AD890F636F7360F0E7B
:10074000F626260EF7220900F5CFB9F10A00F5CFFB
:10075000BAF1020E0101F76AB925F66EBA51F72215
:100760000900F5CFBCF10A00F5CFBDF11200030E70
:10077000425D1AE24251F66EF76AD890F636F736C5
:10078000110EF626260EF7220900F5CFB9F10A0060
:10079000F5CFBAF1B9C1F6FFBAC1F7FF0800F550BD
:1007A0000101BC6FBD6B12000101BB6B12000101A6
:1007B000BB6B1200D9CFE6FFE1CFD9FF020EE126D5
:1007C0000201486B496B40511F0B020A11E0030AFA
:1007D0000CE0010A35E10101BB8F020148810101F2
:1007E000C7052EE1020148832BD00101BB8F28D021
:1007F0000101BB8F020144BF0BD044510F0BE96EC6
:10080000EA6AD890E936EA36A70EE926010E0AD040
:1008100044510F0BE96EEA6AD890E936EA36AF0E1A
:10082000E926010EEA22EECFDEFFEDCFDDFFDECFBF
:10083000E9FFDDCFEAFFEF50040B02E0010E486F45
:100840000101BBAF07D0480EB96F020EBA6FBB8172
:10085000020EBC6F020EE15C02E2E16AE552E16E5B
:10086000E552E7CFD9FF120064980101BBBF47D022
:10087000C0AF26D0020EB86FAFC1E9FFB0C1EAFF2A
:10088000EE52EF6AAFC1E9FFB0C1EAFFC80EEF6EEA
:10089000A5C1E9FFA6C1EAFFEE52080EEF6EA5C1A1
:1008A000E9FFA6C1EAFF020EE926000EEA22480E81
:1008B000EE6E020EED6EA5C1E9FFA6C1EAFF7AD089
:1008C000A5C1E9FFA6C1EAFFEE52080EEF6EA5C171
:1008D000E9FFA6C1EAFF020EE926000EEA22400E59
:1008E000EE6E020EED6EA5C1E9FFA6C1EAFF8C0E09
:1008F000EF6EAFC1E9FFB0C1EAFF840E5CD0C0BFAC
:1009000084D0020140AF59D00101BC510201465DC3
:100910000101BD510201475904E246C2BCF147C280
:10092000BDF174D80101010EB86FA5C1E9FFA6C1E0
:10093000EAFFEE52080EEF6EA5C1E9FFA6C1EAFF7D
:10094000020EE926000EEA22400EEE6E020EED6E59
:10095000A5C1E9FFA6C1EAFF800EEF6EC96BA3C176
:10096000E9FFA4C1EAFFEE52080EEF6EA3C1E9FF52
:10097000A4C1EAFF020EE926000EEA22400EEE6E46
:10098000020EED6EA3C1E9FFA4C1EAFF840EEF6E73
:10099000010EC96FAFC1E9FFB0C1EAFF020EE9263F
:1009A000000EEA22480EEE6E020EED6EAFC1E9FFB8
:1009B000B0C1EAFFC80EEF6E12000101020EB86F5F
:1009C000AFC1E9FFB0C1EAFFEE52EF6AAFC1E9FF84
:1009D000B0C1EAFFC80EEF6EA5C1E9FFA6C1EAFFEC
:1009E000EE52080EEF6EA5C1E9FFA6C1EAFF020EA6
:1009F000E926000EEA22480EEE6E020EED6EA5C14B
:100A0000E9FFA6C1EAFFC80EEF6E1200D9CFE6FFDC
:100A1000E1CFD9FF020EE1260101080EBC5D000EF8
:100A2000BD590DE2BCC1DEFFBDC1DDFFB75102E122
:100A3000010E03D0B70506E1020EB76F03D0080E12
:100A4000DE6EDD6AAFC1E9FFB0C1EAFFEF92AFC170
:100A5000E9FFB0C1EAFFEF90AFC1E9FFB0C1EAFF23
:100A6000010EDB50EF12AFC1E9FFB0C1EAFFEE5259
:100A7000DFCFEFFF000EDB50BC5F010EDB50BD5B34
:100A8000480EC56F020EC66FBBB120D0D9CFE9FFAB
:100A9000DACFEAFFEE50ED1038E0B9C1F6FFBAC187
:100AA000F7FFB92B000EBA230800F550E66EC5C15A
:100AB000E9FFC6C1EAFFC52B000EC623E552E75089
:100AC000EF6EDF06010EE2E2DB06E0D7D9CFE9FFE9
:100AD000DACFEAFFEE50ED1018E0B9C1E9FFBAC174
:100AE000EAFFB92B000EBA23EF50E66EC5C1E9FF4D
:100AF000C6C1EAFFC52B000EC623E552E750EF6ED4
:100B0000DF06010EE3E2DB06E1D7020EE15C02E262
:100B1000E16AE552E16EE552E7CFD9FF1200D9CF85
:100B2000E6FFE1CFD9FF020EE126A3C1E9FFA4C190
:100B3000EAFFEE52EFCFDFFFDFCF10F010500101E0
:100B4000C15D000EC25902E2C1C1DFFFDF50106E6D
:100B5000116AE850C15DC16F1150C259C26F010ED8
:100B6000DB6ADF50F36E010EDBCFF4FFF350F45C71
:100B700016E2010EDB50EA6A480FE96E020EEA2225
:100B8000EF50E66EBEC1E9FFBFC1EAFFBE2B000E0B
:100B9000BF23E552E750EF6E010EDB2AE2D7000ECD
:100BA000D880C155000EC25527E2A5C1E9FFA6C1F4
:100BB000EAFFEE52080EEF6EA5C1E9FFA6C1EAFFFB
:100BC000020EE926000EEA22480EEE6E020EED6ECF
:100BD000A3C1E9FFA4C1EAFFEF50400B06E1A5C1A4
:100BE000E9FFA6C1EAFFC80E05D0A5C1E9FFA6C16D
:100BF000EAFF880EEF6E25D0A5C1E9FFA6C1EAFF86
:100C0000EE52080EEF6EA5C1E9FFA6C1EAFF020E83
:100C1000E926000EEA22400EEE6E020EED6EA5C130
:100C2000E9FFA6C1EAFF840EEF6EC351C41107E0CD
:100C300005D0C4C1FAFF0101C351F96EFADF010109
:100C4000C09F020EE15C02E2E16AE552E16EE5520C
:100C5000E7CFD9FF1200D9CFE6FFE1CFD9FFE652A7
:100C60000101BB8F030EE66EE66AE66A540EE66E7D
:100C70000F0EE66E5FEC13F0106E050EE15E105085
:100C8000DF6ADF50106E116A100E105C000E1158F2
:100C900010E2DF50040DF3CFE9FFF4CFEAFF000EBE
:100CA000E926020EEA22EE6AEE6AEE6AEE6ADF2AB0
:100CB000E8D7648C010EE66EE66AE66AA20EE66E7E
:100CC000010EE66E5FEC13F0106E050EE15E105043
:100CD000649C0101080EAF6F020EB06F000EA36F8F
:100CE000020EA46FA3C1A5F1A66F42C2A1F1A1514A
:100CF00002E1100E12D0010EE66EE66AA10EE66E5B
:100D0000010EE66E010EE66EE66A81EC0DF0106EE5
:100D1000060EE15E10500101200EA06FE552E55273
:100D2000E7CFD9FF1200D9CFE6FFE1CFD9FF020EFE
:100D3000E126000EDE6E020EDD6EFD0EDB50E824B5
:100D4000126EFE0EDB50040DF3501224040DF3500E
:100D5000106E116A020E0F0B05E0D890113210329E
:100D6000E806FBE1D89010361136D89010361136CF
:100D7000D9CFE9FFDACFEAFF1050EE261150ED226D
:100D8000DECFE9FFDDCFEAFFEF9EFD0EDB500AE18B
:100D9000FE0EEA6ADB34FE0BEA36E96EA70EE926A0
:100DA000010E09D0FE0EEA6ADB34FE0BEA36E96E6C
:100DB000AF0EE926010EEA22DECFEEFFDDCFEDFF1A
:100DC000DECFE9FFDDCFEAFFEF9CDECFE9FFDDCF2D
:100DD000EAFF040EE926000EEA22EF8C020EE15C27
:100DE00002E2E16AE552E16EE552E7CFD9FF120077
:100DF000D9CFE6FFE1CFD9FF020EE126FE0EDB5090
:100E0000116A530F106E0F0E112210C0DEFF11C0B9
:100E1000DDFFDECFE9FFDDCFEAFFFD0EDBCFEFFF29
:100E2000DBA407D0E66AFE0EDBCFE6FF7CDFE552EF
:100E3000E552FD0EDBA208D0010EE66EFE0EDBCF02
:100E4000E6FF71DFE552E552020EE15C02E2E16A83
:100E5000E552E16EE552E7CFD9FF1200D9CFE6FFA8
:100E6000E1CFD9FF020EE126FE0EDB5020E1A5C145
:100E7000E9FFA6C1EAFFEE52080EEF6EA5C1E9FF39
:100E8000A6C1EAFF020EE926000EEA22400EEE6E2F
:100E9000020EED6EA5C1E9FFA6C1EAFF8C0EEF6E52
:100EA000AFC1E9FFB0C1EAFF840EEF6E3BD0FD0E8B
:100EB000DB50E824126EFE0EDB50040DF3501224BA
:100EC000040DF3CF10F0F4CF11F0000E1026020E37
:100ED000112210C0DEFF11C0DDFF840EDECFE9FF5E
:100EE000DDCFEAFFE850EF12FD0EDB50E824126E72
:100EF000FE0EDB50040DF3501224010F040DF3CF4E
:100F000010F0F4CF11F0000E1026020E112210C0C6
:100F1000DEFF11C0DDFF840EDECFE9FFDDCFEAFF8B
:100F2000E850EF12020EE15C02E2E16AE552E16E86
:100F3000E552E7CFD9FF1200D9CFE6FFE1CFD9FFC5
:100F4000020EE126FD0EDB500AE0FE0EEA6ADB34FB
:100F5000FE0BEA36E96EAF0EE926010E09D0FE0E51
:100F6000EA6ADB34FE0BEA36E96EA70EE926010ECB
:100F7000EA22EECFDEFFEDCFDDFFD9CFE9FFDACFFA
:100F8000EAFFEE50ED1003E1F36AF46A44D0DECFDD
:100F9000E9FFDDCFEAFF020EE926000EEA22FB0E92
:100FA000DBCFEEFFFC0EDBCFEDFFDECFE9FFDDCFC9
:100FB000EAFFEE52FA0EDBCFEFFF400EDECFE9FF85
:100FC000DDCFEAFFE850EF16880EDECFE9FFDDCF78
:100FD000EAFFE850EF12FD0EDB500AE0FE0EEA6A6F
:100FE000DB34FE0BEA36E96EAF0EE926010E09D0BE
:100FF000FE0EEA6ADB34FE0BEA36E96EA70EE9263E
:10100000010EEA22EF74DECF10F0DDCF11F010C038
:10101000F3FF11C0F4FF020EE15C02E2E16AE55267
:10102000E16EE552E7CFD9FF1200D9CFE6FFE1CF5D
:10103000D9FF64A84ED0FE0EEA6ADB34FE0BEA3616
:10104000E96EAF0EE926010EEA22EE50EFCFEAFF7D
:10105000E96E400EEE16EE6AEE6AEE6AFE0EEA6A7F
:10106000DB34FE0BEA36E96EAF0EE926010EEA220A
:10107000EE50EFCFEAFFE96EEE7CFE0EEA6ADB345B
:10108000FE0BEA36E96EAF0EE926010EEA22EF7496
:10109000400E106EFE0EEA6ADB34FE0BEA36E96E95
:1010A000AF0EE926010EEA22EE50EFCFEAFFE96E1D
:1010B0001050EF16FE0EEA6ADB34FE0BEA36E96EDC
:1010C000AF0EE926010EEA22EE50EFCFEAFFE96EFD
:1010D000EF7CE552E7CFD9FF1200646A606A010134
:1010E000A06B12000101A05114E1646A606A160E3F
:1010F000616E0F019F0E5B6F7B0E606ED08EA284BF
:10110000A084F28E64B602D06486FCD70101010E81
:04111000A06F1200BA
:0C111400D9CFE6FFE1CFD9FFFD0EDBCF05
:10112000E9FFFE0EDBCFEAFF030EE926000EEA22FE
:10113000E9CF10F0EACF11F0FD0EDBCFE9FFFE0E94
:10114000DBCFEAFF020EE926000EEA22EF50102460
:10115000E96E000E1120EA6EFC0EDBCFEFFFFD0EF4
:10116000DBCFE9FFFE0EDBCFEAFFEFCF10F0FD0E85
:10117000DBCFE9FFFE0EDBCFEAFF020EE926000E11
:10118000EA22EF281014E66EFD0EDBCFE9FFFE0E1B
:10119000DBCFEAFF020EE926000EEA22E552E75015
:1011A000EF6EFD0EDBCFE9FFFE0EDBCFEAFF230E75
:1011B000E926000EEA22EF6AE552E7CFD9FF1200D6
:1011C000D9CFE6FFE1CFD9FFE652FD0EDBCFE6FF38
:1011D000FE0EDBCFE6FFF5D8E552E552000902E14D
:1011E000000E5DD0FD0EDBCFE9FFFE0EDBCFEAFF88
:1011F000030EE926000EEA22E9CF10F0EACF11F043
:10120000FD0EDBCFE9FFFE0EDBCFEAFFEE52EF5023
:101210000F011024E96E000E1120EA6EEFCFDFFF00
:10122000FD0EDBCFE9FFFE0EDBCFEAFFEFCF10F0C4
:10123000FD0EDBCFE9FFFE0EDBCFEAFFEE52EF281B
:101240001014E66EFD0EDBCFE9FFFE0EDBCFEAFFEA
:10125000EE52E552E750EF6EFD0EDBCFE9FFFE0EDA
:10126000DBCFEAFFEE52EFCF10F0FD0EDBCFE9FF50
:10127000FE0EDBCFEAFF020EE926000EEA22EF5057
:10128000105C0CE1FD0EDBCFE9FFFE0EDBCFEAFFC9
:10129000230EE926000EEA22010EEF6EDF50E55222
:1012A000E552E7CFD9FF1200D9CFE6FFE1CFD9FF52
:1012B000E652FD0EDBCFE6FFFE0EDBCFE6FF81D868
:1012C000E552E552DF6EFC0EDB50D880DF5403E2BE
:1012D000FC0EDB50DF6EFD0EDBCFE9FFFE0EDBCF39
:1012E000EAFFEFCF10F0FD0EDBCFE9FFFE0EDBCF04
:1012F000EAFFEE52EF50DF241014E66EFD0EDBCF56
:10130000E9FFFE0EDBCFEAFFEE52E552E750EF6E4B
:10131000FD0EDBCFE9FFFE0EDBCFEAFFEE52EFCF93
:1013200010F0FD0EDBCFE9FFFE0EDBCFEAFF020E71
:10133000E926000EEA22EF50105C0CE1FD0EDBCF37
:10134000E9FFFE0EDBCFEAFF230EE926000EEA22BC
:10135000010EEF6EE552E552E7CFD9FF1200D9CF6B
:10136000E6FFE1CFD9FFE652FD0EDBCFE9FFFE0E2F
:10137000DBCFEAFFEFCF10F0FC0EDBCFE6FFFD0E78
:10138000DBCFE9FFFE0EDBCFEAFFEE52EF50E55276
:10139000E7241014DF6EFD0EDBCFE9FFFE0EDBCF7E
:1013A000EAFF030EE926000EEA22DF50E924E96E87
:1013B000000EEA20EA6EEF50E552E552E7CFD9FF82
:1013C0001200D9CFE6FFE1CFD9FFFD0EDBCFE9FF59
:1013D000FE0EDBCFEAFFEF28136EE66EFD0EDBCFCD
:1013E000E6FFFE0EDBCFE6FF30D8E552E552E552D0
:1013F000E7CF13F0000902E1000E01D0010E130245
:10140000F3CF12F0FD0EDBCFE9FFFE0EDBCFEAFFDC
:10141000EFCF11F0FD0EDBCFE9FFFE0EDBCFEAFFD1
:10142000020EE926000EEA22EFCF10F0FD0EDBCF10
:10143000E9FFFE0EDBCFEAFFEE52EF50105C111415
:10144000F324E552E7CFD9FF1200D9CFE6FFE1CF71
:10145000D9FFFD0EDBCFE9FFFE0EDBCFEAFFEE5238
:10146000EFCF10F0FD0EDBCFE9FFFE0EDBCFEAFF82
:10147000020EE926000EEA22EF50105C0CE1FD0E90
:10148000DBCFE9FFFE0EDBCFEAFF230EE926000EDD
:10149000EA22EF5002E0000E01D0010EE552E7CF44
:1014A000D9FF1200D9CFE6FFE1CFD9FFFD0EDBCF88
:1014B000E9FFFE0EDBCFEAFFEE52EFCF10F0FD0E9C
:1014C000DBCFE9FFFE0EDBCFEAFF020EE926000EBE
:1014D000EA22EF50105C0CE1FD0EDBCFE9FFFE0EBF
:1014E000DBCFEAFF230EE926000EEA22EF5002E1ED
:1014F000000E01D0010EE552E7CFD9FF1200D9CF7F
:10150000E6FFE1CFD9FFFD0EDBCFE9FFFE0EDBCF1B
:10151000EAFFEF28106EE66EFD0EDBCFE6FFFE0E53
:10152000DBCFE6FF4EDFE552E552E552E7CF10F0A4
:10153000105CE552E7CFD9FF1200D9CFE6FFE1CF2B
:10154000D9FFFD0EDBCFE9FFFE0EDBCFEAFFEFCFC9
:1015500010F0FB0EDBCFE6FFFC0EDB50E552E75C44
:101560001014E552E7CFD9FF1200D9CFE6FFE1CF43
:10157000D9FF020EE126DE6ADD6ADECF10F0DDCF94
:1015800011F0F90EDB50000111AE02D0D89003D05B
:10159000105C000E11583DE2FD0EDBCFE9FFFE0EA0
:1015A000DBCFEAFF030EE926000EEA22E9CF12F0B4
:1015B000EACF13F0FA0EDB50186E196ADE501824C9
:1015C000166EDD501920FD0EDBCFE9FFFE0EDBCFDE
:1015D000EAFFEF501614146E156A12501424E96EC7
:1015E00013501520EA6EEF50E66EFB0EDBCF10F0C5
:1015F000FC0EDBCF11F0DE501024E96EDD5011201F
:10160000EA6EE552E750EF6EDF2A010EB6E3DB2A01
:10161000B4D7020EE15C02E2E16AE552E16EE55206
:10162000E7CFD9FF1200D9CFE6FFE1CFD9FF020EF5
:10163000E126FC0EDB50DE6EDD6AFD0EDBCFE9FF3E
:10164000FE0EDBCFEAFFEFCF12F0FB0EDBCFE6FFA3
:10165000FD0EDBCFE9FFFE0EDBCFEAFF020EE9262F
:10166000000EEA22EF50E552D880E7541214116AB6
:10167000E850DF1803E11150DE52DD1866E0FD0E80
:10168000DBCFE9FFFE0EDBCFEAFF030EE926000EFB
:10169000EA22E9CF14F0EACF15F0FB0EDB50E76E3B
:1016A000000EDFCF18F0010EDBCF19F0E75018263F
:1016B000000E1922FD0EDBCFE9FFFE0EDBCFEAFFA5
:1016C000EF5000011814166E176A14501624E96EB4
:1016D00015501720EA6EEF50E66EFD0EDBCFE9FFE6
:1016E000FE0EDBCFEAFF030EE926000EEA22E9CF69
:1016F00010F0EACF11F0FD0EDBCFE9FFFE0EDBCFDD
:10170000EAFFEF50126E136A000EDFCF08F0010EF1
:10171000DBCF09F012C00DF013C00EF039EC13F05E
:1017200013AE04D0046C051E000E052210500424D4
:10173000E96E11500520EA6EE552E750EF6EDF2AA0
:10174000010E01E27AD7DB2A78D7FD0EDBCFE9FF65
:10175000FE0EDBCFEAFFEF50E76E000EDFCF10F09A
:10176000010EE7501016116AFD0EDBCFE9FFFE0EE9
:10177000DBCFEAFF020EE926000EEA2210C0EFFFDF
:10178000FD0EDBCFE9FFFE0EDBCFEAFFEE52EFCF1F
:1017900010F0FD0EDBCFE9FFFE0EDBCFEAFF020EFD
:1017A000E926000EEA22EF50105C0CE1FD0EDBCFC3
:1017B000E9FFFE0EDBCFEAFF230EE926000EEA2248
:1017C000010EEF6E020EE15C02E2E16AE552E16EAB
:1017D000E552E7CFD9FF1200D9CFE6FFE1CFD9FF1D
:1017E000020EE126FD0EDBCFE6FFFE0EDBCFE6FFAD
:1017F000E8DDE552E552106EFA0EDB50105C01E2B6
:1018000086D0FD0EDBCFE9FFFE0EDBCFEAFFEFCF88
:1018100010F0FA0EDBCFE6FFFD0EDBCFE9FFFE0E88
:10182000DBCFEAFFEE52EF50E552D880E7541014B8
:10183000E66EFD0EDBCFE9FFFE0EDBCFEAFFEE52D8
:10184000E552E750EF6EDE6ADD6ADECF10F0DDCFE5
:1018500011F0FA0EDB50000111AE02D0D89003D087
:10186000105C000E115844E2FB0EDBCF18F0FC0EAA
:10187000DBCF19F0DE501824E96EDD501920EA6E36
:10188000EF50E66EFD0EDBCFE9FFFE0EDBCFEAFF89
:10189000030EE926000EEA22E9CF10F0EACF11F09C
:1018A000FD0EDBCFE9FFFE0EDBCFEAFFEE52EF507D
:1018B000166E176ADE501624146EDD501720156E52
:1018C000FD0EDBCFE9FFFE0EDBCFEAFFEF50141475
:1018D000126E136A10501224E96E11501320EA6E32
:1018E000E552E750EF6EDF2A010EAFE3DB2AADD7FA
:1018F000FA0EDB5000080BE2FD0EDBCFE9FFFE0E17
:10190000DBCFEAFF230EE926000EEA22EF6A020E81
:10191000E15C02E2E16AE552E16EE552E7CFD9FF10
:101920001200D9CFE6FFE1CFD9FFFD0EDBCFE9FFF3
:10193000FE0EDBCFEAFF020EE926000EEA22EF5090
:10194000E66EFD0EDBCFE9FFFE0EDBCFEAFFEE52C7
:10195000E552E750EF6EFD0EDBCFE9FFFE0EDBCF69
:10196000EAFF230EE926000EEA22010EEF6EE55291
:06197000E7CFD9FF1200D1
:0A197600DACFE4FFE2CFDAFFE9CF99
:10198000E4FFEACFE4FFF6CFE4FFF7CFE4FFF5CFC3
:10199000E4FFF3CFE4FFF4CFE4FFFACFE4FF00EE7F
:1019A00000F0100EE80403E3EECFE4FFFBD700EEF7
:1019B00010F00A0EE80403E3EECFE4FFFBD7E65293
:1019C00085EC00F0E55200EE19F00A0EE80403E39E
:1019D000E5CFEDFFFBD700EE0FF0100EE80403E3B8
:1019E000E5CFEDFFFBD7E5CFFAFFE5CFF4FFE5CF7D
:1019F000F3FFE5CFF5FFE5CFF7FFE5CFF6FFE5CF46
:101A0000EAFFE5CFE9FFE5CFDAFF1100D8CFE4FF29
:101A1000E0CFE4FFE46EDACFE4FFE6529D50020B24
:101A20000BE09E50020B08E0640E0201FB5D02E237
:101A3000FB2B01D0FB6B9E92E552E5CFDAFFE55020
:101A4000E5CFE0FFE5CFD8FF10000AD80101A05193
:101A500002E172EC08F03AD9E0D870EC11F0F6D758
:101A60000F0EC16EC26A05D8BDDA17EC00F017EF91
:101A700012F000011F0E806F816B826B010EA36F4D
:101A80001F0EA46FA56BA66B010EC76F7E6A7F6ADF
:101A9000F80E94168B848B808B82FC0ECA1403097B
:101AA000CA6E4B0ECB6ECC6A9E929D829F92D08E58
:101AB000F28EF28EF28CCA8412000201FC6BA40E2C
:101AC000E66E000EE66E91EC0CF0E552E552800EEB
:101AD000E66E000EE66E91EC0CF0E552E552120057
:101AE0000201010EFC6F120012001200F3EF0FF062
:101AF000120041EC10F00201010EFC6F8B921200FB
:101B00001200D9CFE6FFE1CFD9FFFD0EDBCF08F001
:101B1000FE0EDBCF09F0720E081801E1095033E028
:101B2000E868081802E17F0E09182BE0740E081807
:101B300001E1095024E0750E081801E109501DE08B
:101B4000730E081801E1095016E0030E081801E1B0
:101B500009500FE0020E081801E1095008E0010EDB
:101B6000081801E1095001E010D0C3DF0FD0C0DF39
:101B70000DD0BCDF0BD0B8DF09D09FDF07D0B0DFBE
:101B800005D0B3DF03D0000001D000D0010E00D09B
:101B9000E552E7CFD9FF1200D9CFE6FFE1CFD9FF59
:101BA000040EE126DE6ADD6A020EDB6A030EDB6AE2
:101BB000020EDBCF10F0030EDBCF11F0FC0EDB507A
:101BC000000111AE02D0D89003D0105C000E115865
:101BD00016E2020EDBCF10F0030EDBCF11F0FD0E8C
:101BE000DB501024E96EFE0EDB501120EA6EEF5040
:101BF000DF1A020EDB2A030EDBE3DB2AD9D7DF5024
:101C0000106E040EE15C02E2E16AE552E16E1050F2
:101C1000E552E7CFD9FF12001200D9CFE6FFE1CF9E
:101C2000D9FFE6520001A529A415EA6AA70FE96EBB
:101C3000000EEA22EF500F0B030FDF6E0201E0519E
:101C400040E1A40EE66E000EE66EE1EC09F0E5520E
:101C5000E552106E030E105C34E3A40EE66E000E27
:101C6000E66EE1EC09F0E552E552116EDF50115CD1
:101C700028E3DFCFE6FFA5C0E6FF600EE66E000EAC
:101C8000E66EA40EE66E000EE66EB5EC0AF0106E7F
:101C9000060EE15E1050DFCFE6FF600EE66E000E2E
:101CA000E66ED2EC10F0E552E552E552DFCFE6FFEA
:101CB000A40EE66E000EE66E54EC09F0E552E55215
:101CC000E552E552E552E7CFD9FF1200D9CFE6FF42
:101CD000E1CFD9FF030EE126200E0101E76EA01926
:101CE000E8AE02D0E73402D0E750A05D01E20BD1AC
:101CF0006450020B01E007D10201E05101E003D181
:101D0000800EE66E000EE66E25EC0AF0E552E55216
:101D100000090AE0FDC282F000018251815D01E00C
:101D2000F2D0010EC76FEFD0800EE66E000EE66EA9
:101D30007FEC0AF0E552E552E66E800EE66E000E8C
:101D4000E66E75EC10F0E552E552E552E76E020ED4
:101D5000E7CFDBFFDB5016E10A0E0201F85D01E27E
:101D6000D2D0000182510201FD5D01E1CCD0FDC263
:101D700082F0F86B00018151825D01E0C4D0010E58
:101D8000A36FC1D00201F86B82C0E6FFFDC2E6FF7F
:101D9000800EE66E000EE66E9DEC0AF0E552E5520E
:101DA000E552E552106E030E105C01E2ACD082C029
:101DB000E6FFFDC2E6FF800EE66E000EE66E9DECCD
:101DC0000AF0E552E552E552E552116E0201FD2995
:101DD00000018015EA6A830FE96E000EEA22EF50D7
:101DE0000F0B030F115C01E28ED0010EDB6ADF6A7C
:101DF0000201FD2900018015EA6A830FE96E000ED9
:101E0000EA22EF500F0B030FFE0FF36E010EDBCF34
:101E1000F4FFF350F45C11E2010EDB500201FD25EA
:101E2000010F00018015EA6A830FE96E000EEA22B5
:101E3000EF50DF1A010EDB2ADBD7010EDB50020167
:101E4000FD25010F00018015EA6A830FE96E000E7F
:101E5000EA22EF50DF5C1AE00201FD290001801543
:101E6000EA6A830FE96E000EEA22EF500F0B030FB0
:101E7000E66EFDC2E6FF800EE66E000EE66E13EC27
:101E80000BF0E552E552E552E5523DD00201FD511D
:101E9000EA6A830FE96E000EEA22EF50E00BE838A1
:101EA000E840000902E1000E01D0010E01082BE11B
:101EB000FD2900018015EA6A830FE96E000EEA220F
:101EC000EF500F0B030FE66EFDC2E6FF26D8E5527A
:101ED000E5520201FD2900018015EA6A830FE96ECF
:101EE000000EEA22EF500F0B030FE66EFDC2E6FF75
:101EF000800EE66E000EE66E13EC0BF0E552E55236
:101F0000E552E55241D7030EE15C02E2E16AE55297
:101F1000E16EE552E7CFD9FF1200D9CFE6FF8B7211
:101F2000E552E7CFD9FF12001200D9CFE6FFE1CF8B
:101F3000D9FF020EE126DE6ADD6ADECF10F0DDCFCA
:101F400011F0FD0EDBCFE9FFFE0EDBCFEAFFEF5015
:101F5000126E136A13501118E8AE02D0113404D077
:101F60001050125C1150135822E3FD0EDBCFE9FF35
:101F7000FE0EDBCFEAFF030EE926000EEA22DE505A
:101F8000E924E96EDD50EA20EA6EEF50E66EDECF1E
:101F9000E9FFDDCFEAFF600EE926000EEA22E552F6
:101FA000E750EF6EDF2A010EC8E3DB2AC6D7FD0E2D
:101FB000DBCFE9FFFE0EDBCFEAFFEF28E66E600E17
:101FC000E66E000EE66ED2EC10F0E552E552E552F8
:101FD000020EE15C02E2E16AE552E16EE552E7CF12
:061FE000D9FF12001200FF
:0A1FE600020140511F0B010801E049
:101FF00012004051600BE842E842E842E842E84201
:10200000010801E01200445103E0440501E0120020
:102010004151220A31E0030A24E0010A15E0210AB5
:102020000DE0010A01E012000101F00EB96F020E8D
:10203000BA6F080EBC6FBD6BBB8121D00101F00EE1
:10204000B96F020EBA6F1BD046C2C1F147C2C2F1CE
:102050000101D80EBE6F020EBF6FC36BC46BC08F81
:1020600012000101D80EB96F020EBA6F070EBC6FD5
:10207000BD6BC10EBB6F120042C2EBF20101BB8F00
:1020800012000201D86B4B0ED96FDA6BDB6BDC6B85
:10209000DD6B080EDE6F0201E06BDF6B1A0EE66E81
:1020A000020EE66EF8EC06F0E552E5521E0EE66E04
:1020B000030EE66EF8EC06F0E552E552400EE66ED1
:1020C000580EE66E020EE66EE66A030EE66E9CECB5
:1020D00007F0106E050EE15E1050F3CFE7F2F4CF7B
:1020E000E8F20201E96BEA6B1200D9CFE6FFE1CF1B
:1020F000D9FF0201DF6BE751E81102E1000E08D0C1
:10210000E7C2E9FFE8C2EAFFEF50800B01E0010EF1
:10211000000942E1FC0EDBCF10F0E7C2E9FFE8C2A4
:10212000EAFFEE52EF50D880105408E2E7C2E9FF10
:10213000E8C2EAFFEE52FC0EEFCFDBFFDF6BFC0ED6
:10214000DB50DF5D16E2DF51EA6A580FE96E020EDE
:10215000EA22EF50E66EFD0EDBCFE6FFFE0EDBCF90
:10216000E6FF8AEC08F0E552E552E5520201DF2B6A
:10217000E6D7400EE66E580EE66E020EE66EE66A92
:10218000030EE66E9CEC07F0106E050EE15E10503B
:10219000F3CFE7F2F4CFE8F20201DF51E552E7CFE7
:1021A000D9FF1200D9CFE6FFE1CFD9FFA0940201F9
:1021B000E0510CE1FD0EDBCFE1F2FE0EDBCFE2F2EF
:1021C000FC0EDBCFE5F2010EE66FE06FA084E55276
:1021D000E7CFD9FF1200D9CFE6FFE1CFD9FF030E39
:1021E000E126A0940201E0512DE1DF6AFD0EDBCF74
:1021F00008F0FE0EDBCF09F0DE5208C0DEFF09C09A
:10220000DDFFDD52DF2ADF50106E116AFF0E10185D
:1022100002E111500BE0010EDBCFE9FFDB2A020ED9
:10222000DBCFEAFF01E3DB2AEF50ECE1FD0EDBCF71
:10223000E1F2FE0EDBCFE2F2DFCFE5F20201010EAA
:10224000E66FE06FA084030EE15C02E2E16AE55212
:10225000E16EE552E7CFD9FF1200D9CFE6FFE1CF1B
:10226000D9FF030EE126A0940201E0512EE1DF6ABE
:10227000FD0EDBCF08F0FE0EDBCF09F0DE5208C00A
:10228000DEFF09C0DDFFDD52DF2ADF50106E116A6C
:10229000FF0E101802E111500CE0010EDBCFF6FF2B
:1022A000DB2A020EDBCFF7FF01E3DB2A0800F55043
:1022B000EBE1FD0EDBCFE1F2FE0EDBCFE2F2DFCF92
:1022C000E5F20201E66B010EE06FA084030EE15C13
:1022D00002E2E16AE552E16EE552E7CFD9FF120072
:1022E000D9CFE6FFE1CFD9FF020EE126A09402018B
:1022F000E951EA1102E1000E08D0E9C2E9FFEAC2A1
:10230000EAFFEF50800B01E0010E000906E1030E29
:10231000E05D01E1E06BE05102E1A0847ED0020EBD
:10232000E05D16E1E66A000EE66EE66A010EE66E14
:10233000030EE66E9CEC07F0106E050EE15E105089
:10234000F3CFE9F2F4CFEAF20201030EE06F64D0BA
:10235000E00562E1400E106E116AE551105C000E5E
:10236000115803E2400EDF6E02D0E5C2DFFFDF50FE
:10237000E55DE56F980EE36F020EE46F010EDFCFAF
:10238000DBFFE65116E1010EDB5028E0E1C2F6FF6B
:10239000E2C2F7FF0800F550E3C2E9FFE4C2EAFF3A
:1023A000EF6EE32B000EE423E12BE223010EDB06AC
:1023B000EAD7010EDB5012E0E1C2E9FFE2C2EAFF18
:1023C000EF50E3C2E9FFE4C2EAFFEF6EE32B000E39
:1023D000E423E12BE223010EDB06EBD70201E551FA
:1023E00007E1400EDF5C02E1020E01D0030EE06F58
:1023F000DFCFE6FF980EE66E020EE66E010EE66E89
:10240000030EE66E9CEC07F0106E050EE15E1050B8
:10241000F3CFE9F2F4CFEAF2A084020EE15C02E22B
:0E242000E16AE552E16EE552E7CFD9FF120006
:02242E00938A8F
:10243000939C939EAC94B8960B0EAF6E8A9CAC980E
:10244000AB8EAC8CAB8CAB86AB88AC8A1200D9CF90
:10245000E6FFE1CFD9FFFD0EDB50E8B0AC80E8A08D
:10246000AC90FC0EDB50AD6EE552E7CFD9FF120009
:102470009E50200B01E0010E1200D9CFE6FFE1CF04
:10248000D9FF030EE126AB50040B01E0010EE76E0D
:10249000020EE7CFDBFFAB50010BE76E010EE7CF7B
:1024A000DBFFAE50DF6EABB2AB989E9ADFCF10F081
:1024B000010EDBCF11F0020EDBCF12F010C007F0DF
:1024C00011C008F012C009F0030EE15C02E2E16AFB
:0C24D000E552E16EE552E7CFD9FF1200A3
:0424DC00200EF66E6A
:1024E000000EF76E000EF86E00010900F550EF6F58
:1024F0000900F550F06F03E1EF6701D03DD009000E
:10250000F550EA6F0900F550EB6F0900F550EC6FDC
:1025100009000900F550E96E0900F550EA6E09005E
:1025200009000900F550ED6F0900F550EE6F090044
:102530000900F6CFF1F0F7CFF2F0F8CFF3F0EAC0F0
:10254000F6FFEBC0F7FFECC0F8FF0001ED5302E12E
:10255000EE5307E00900F550EE6EED07F8E2EE07E6
:10256000F9D7F1C0F6FFF2C0F7FFF3C0F8FF0001A2
:0A257000EF07000EF05BBFD712006A
:06257A0012010002020044
:102580000008D8040A00000101020001090243000A
:10259000020100C03209040000010202010005240A
:1025A0000010010424020205240600010524010094
:1025B000010705820308000209040100020A000065
:1025C00000070503024000000705830240000004E5
:1025D00003090434034D006900630072006F006357
:1025E0000068006900700020005400650063006806
:1025F000006E006F006C006F0067007900200049DA
:10260000006E0063002E00080375004C0049008C2A
:0726100025CF25D325072685
:08261800D9CFE6FFE1CFD9FFA5
:10262000A66AFE0EDB50A96EA680A850E552E7CF41
:10263000D9FF1200D9CFE6FFE1CFD9FFE652F25021
:10264000DF6EA66AA684FE0EDB50A96EFD0EDB507F
:10265000A86EF29E550EA76EAA0EA76EA682DF5038
:10266000F26EA1A8FED7A694E552E552E7CFD9FFB6
:02267000120056
:0E267200006A0EAE42EF13F00D6C0E1EE86A09
:102680000E22001E09AE4AEF13F0086C091EE86A1C
:102690000922001E79EC13F009BE5AEF13F000AEC8
:1026A000000C086C091EE86A0922046C051EE86A21
:0E26B0000522000C00BE51EF13F00188FF0C54
:0226BE00FE0E0E
:1026C000E3CFE9FFFF0EE3CFEAFFE9CFF3FFEACF65
:1026D000F4FFFB0EE35003E1FC0EE35009E0FB0EB8
:1026E000E30602E2FC0EE306FD0EE350EE6EF1D7C8
:0226F0001200D6
:0E26F200056A046A100EE76ED89008360936A5
:10270000043605360D50045C0E50055805E30D5097
:0E271000045E0E50055A082AE72EF0D712007C
:02271E00000EAB
:10272000F36E00EE00F0030E01D81200EA6002D052
:0E273000EE6AFCD7F350E9601200EE6AFCD7A7
:02273E0011EE9A
:1027400000F021EE00F0F86A019C6EEC12F0ADECA6
:0A27500013F025EC0DF0FBD712008A
:02275A0012006B
:04275C000000000079
:042760000000000075
:020000040030CA
:0100000020DF
:0100010032CC
:010002000EEF
:010003001EDE
:01000500807A
:010006008D6C
:0100080003F4
:01000900C036
:01000A0003F2
:01000B00E014
:01000C0003F0
:01000D0040B2
:00000001FF
