:020000040000FA
:06000000AAEF1AF0120045
:0600080017EF00F01200EA
:060018007AEF00F0120077
:0E00200001007235000096000000280000006C
:02002E00DACF27
:10003000E4FFE2CFDAFFE9CFE4FFEACFE4FFF6CF57
:10004000E4FFF7CFE4FFF5CFE4FFF3CFE4FFF4CF15
:10005000E4FFFACFE4FF00EE00F0100EE80403E343
:10006000EECFE4FFFBD700EE10F0100EE80403E340
:10007000EECFE4FFFBD7E65204EC0BF09D50100BE3
:100080000EE09E50100B0BE00001A051A11107E003
:1000900005D0A1C0FAFF0001A051F96EFADF9D5012
:1000A000200B04E09E50200B01E0B4DAE55200EE94
:1000B0001FF0100EE80403E3E5CFEDFFFBD700EEE1
:1000C0000FF0100EE80403E3E5CFEDFFFBD7E5CF1B
:1000D000FAFFE5CFF4FFE5CFF3FFE5CFF5FFE5CF7E
:1000E000F7FFE5CFF6FFE5CFEAFFE5CFE9FFE5CF84
:1000F000DAFF1100D8CFE4FFE0CFE4FFE46EDACFFF
:10010000E4FFE6529D50020B01E1BAD09E50020B73
:1001100001E1B6D000019751000804E20C0E975D92
:1001200001E2972BA35104E0AC50020B01E08A9C42
:10013000B850400B0AE1985108E18A50400B05E1A4
:10014000010E986F976B9B6B9C6B320E9B5D000E44
:100150009C5903E29B2B000E9C23E80E9E5D030E30
:100160009F5904E29E2B000E9F2389D09E6B9F6BAC
:100170000A0E9A5D01E29A2BAD51020B09E0640E62
:10018000B05D06E2B02B640EB05D02E1B06BB985E4
:10019000AD51010B21E0F40EAE5D010EAF591CE232
:1001A000AE2B000EAF23F40EAE1916E1010EAF19FF
:1001B00013E18B88986B010E976F966FA56BA66BFA
:1001C000A76BA86BA96BAA6BAB6BAC6BAB989D9A3A
:1001D000AE6BAF6BAD91B9810A0EB15D05E2B12B8B
:1001E000050EB15D01E18B800A0EB25D07E2A451FC
:1001F00005E0B22B050EB25D01E18B92B42BB35139
:10020000B45D15E3B46BB52BB651E824B55D04E1DC
:10021000280EB36F8B940BD0B651E824D880B55517
:1002200005E20F0EB36FB56B8B8401D08B748150D8
:10023000100B100A01E0010EB85D20E00A0EB75D58
:100240001EE2B72B0A0EB75D1AE38150100B100A9D
:1002500001E0010EB86F81A80ED0986B010E976F68
:10026000966FA56BA66BA76BA86BA96BAA6BAB6B04
:10027000AC6BAB989D9AB76BB98101D0B76B9E926E
:10028000E552E5CFDAFFE550E5CFE0FFE5CFD8FF57
:100290001000B5D80001605102E1F1EC12F00C0E33
:1002A0000001975D01E286D08B50100B01E082D0F7
:1002B000B85101E17FD0040E995D01E078D09651EC
:1002C0001F0BA9C010F0AAC011F0ABC012F0ACC057
:1002D00013F007E0D8901332123211321032E806D0
:1002E000F9E1010E1016116A126A136A105011100A
:1002F0001210131043E0010E146E156A166A176A85
:10030000000196511F0B07E0D890143615361636AB
:100310001736E806F9E1141C106E151C116E161C38
:10032000126E171C136E10500001A9171150AA1756
:100330001250AB171350AC17010E146E156A166AE3
:10034000176A96511F0B07E0D890143615361636EB
:100350001736E806F9E1141C106E151C116E161CF8
:10036000126E171C136E10500001A5171150A6171E
:100370001250A7171350A817B98319D0010E106E89
:10038000116A126A136A000196511F0B07E0D89098
:100390001036113612361336E806F9E11050000116
:1003A000A9131150AA131250AB131350AC13976B2F
:1003B0000EEC07F00001A3510EE0AC50020B0BE075
:1003C000A36BA051A11107E005D0A1C0FAFF000165
:1003D000A051F96EFADFBCDA4FDAF7D8ACEC18F0BE
:1003E0000001B95101E156D70101C65100019D5DDF
:1003F00001E050D70FEC09F0C6C19DF04BD70F0EAE
:10040000C16EC26A98EC08F004D896EC0AF053EF7B
:1004100019F001011F0EA06FA16BA26B010EC36F3B
:100420001F0EC46FC56BC66B010EE76F7E6A7F6AD5
:10043000F19EF80E94168B848B808B8294988B8817
:100440009388FC0ECA140109CA6E1E0ECB6ECC6ACC
:100450009E929D829F92D08EF28CF28EF28EF28CC2
:10046000F296F180CA8412000001A46B8B82C40E44
:10047000E66E010EE66E05EC17F0E552E552A00EB1
:10048000E66E010EE66E05EC17F0E552E55212003D
:100490000001010EA46F8B921200120012002FEFC8
:1004A00017F012007DEC17F00001010EA46F8B9283
:1004B00012001200D9CFE6FFE1CFD9FFFD0EDBCF4E
:1004C00008F0FE0EDBCF09F0720E081801E10950AA
:1004D00033E0E868081802E17F0E09182BE0740E7B
:1004E000081801E1095024E0750E081801E10950CF
:1004F0001DE0730E081801E1095016E0030E0818FC
:1005000001E109500FE0020E081801E1095008E06E
:10051000010E081801E1095001E010D0C3DF0FD02F
:10052000C0DF0DD0BCDF0BD0B8DF09D09DDF07D016
:10053000AFDF05D0B3DF03D0000001D000D0010E43
:1005400000D0E552E7CFD9FF1200D9CFE6FFE1CFC7
:10055000D9FF040EE126DE6ADD6A020EDB6A030EB5
:10056000DB6A020EDBCF10F0030EDBCF11F0FC0EC6
:10057000DB50000111AE02D0D89003D0105C000E09
:10058000115816E2020EDBCF10F0030EDBCF11F094
:10059000FD0EDB501024E96EFE0EDB501120EA6EDA
:1005A000EF50DF1A020EDB2A030EDBE3DB2AD9D77A
:1005B000DF50106E040EE15C02E2E16AE552E16E8A
:1005C0001050E552E7CFD9FF12000101C6510001DA
:1005D0009D5D02E198511DE0320E9B5D000E9C591D
:1005E00018E39DC0C6F10101C551C65D02E1010ECF
:1005F000E76F00019B6B9C6B030EE66E020EE66ECE
:10060000010EE66EEAEC08F0E552E552E5520EEC1A
:1006100007F01200D9CFE6FFE1CFD9FF020EE126A5
:1006200000019B6B9C6B010E986F976B96511F0B93
:10063000A5C010F0A6C011F0A7C012F0A8C013F01A
:1006400007E0D8901332123211321032E806F9E185
:10065000010E1016116A126A136A1050111012104E
:1006600013101AE1010E106E116A126A136A00016A
:1006700096511F0B07E0D8901036113612361336FC
:10068000E806F9E110500001A5131150A61312500D
:10069000A7131350A813B983010E146E156A166AB6
:1006A000176A000196511F0B07E0D89014361536D3
:1006B00016361736E806F9E1141C106E151C116E7B
:1006C000161C126E171C136E10500001A917115042
:1006D000AA171250AB171350AC177BEC19F007C0D8
:1006E000BAF008C0BBF009C0BCF00101C429116E0A
:1006F000C429136EC651C55D02E1E75102E0000E48
:1007000001D0010E1302C551C65DC415F324115C5E
:10071000106E020E105C09E29DC0C6F1C551C65DA7
:1007200001E0A0D0010EE76F9DD0C65100019D5D94
:1007300060E1010EDB6A96C0DFFFDF140AE0010E04
:10074000DB5002E0000E01D0010EE76E010EE7CF94
:10075000DBFFDF407F0BDF6E010B0AE0010EDB5099
:1007600002E0000E01D0010EE76E010EE7CFDBFFC5
:10077000DF407F0BDF6E010B0AE0010EDB5002E071
:10078000000E01D0010EE76E010EE7CFDBFFDF4068
:100790007F0BDF6E010B0AE0010EDB5002E0000E62
:1007A00001D0010EE76E010EE7CFDBFFDF407F0BCC
:1007B000DF6E010B0AE0010EDB5002E0000E01D0FB
:1007C000010EE76E010EE7CFDBFF010EDB50800D5F
:1007D000600E9625F324E66E0101C651EA6AC70F42
:1007E000E96E010EEA22E552E750EF6EC629C41504
:1007F000C66F0101C651EA6AC70FE96E010EEA220F
:10080000BAC0EFFFC629C415C66FE76B00019D5142
:100810000101C65DC415106E00019D290101C415BA
:10082000EA6AC70FE96E010EEA22EF500F0B030FC1
:10083000105C12E3040E0001995D09E19DC0C6F150
:100840000101C551C65D05E1010EE76F02D0C6C1C9
:100850009DF00001060E976F0A0E0001B15D02E3E4
:100860008B90B16B020EE15C02E2E16AE552E16E4F
:10087000E552E7CFD9FF1200D9CFE6FFE1CFD9FF8C
:10088000E6520101C529C415EA6AC70FE96E010ED7
:10089000EA22EF500F0B030FDF6E0201E05153E12C
:1008A0000101C429126EC651C55D02E1E75102E0A3
:1008B000000E01D0010E1202F3CF11F0C551C65D3A
:1008C000C415F324106E030E105C3DE3C429156EAD
:1008D000C651C55D02E1E75102E0000E01D0010EF4
:1008E0001502F3CF14F0C551C65DC415F324136E81
:1008F000DF50135C28E3DFCFE6FFC5C1E6FF800EC3
:10090000E66E010EE66EC40EE66E010EE66EE6ECD5
:1009100014F0106E060EE15E1050DFCFE6FF800E81
:10092000E66E010EE66E0EEC18F0E552E552E55269
:10093000DFCFE6FFC40EE66E010EE66E15EC14F096
:10094000E552E552E552E552E552E7CFD9FF1200F4
:10095000D9CFE6FFE1CFD9FF040EE126200E00013A
:10096000E76E6019E8AE02D0E73402D0E750605D70
:1009700001E2ACD16450020B01E0A8D10201E051C8
:1009800001E0A4D10101A251A15D0DE1C3510BE130
:10099000BDC0A2F1A251A15D02E1010EE76F070EF9
:1009A000E66E060E73D1A029106EA029126EA25118
:1009B000A15D02E1C35102E0000E01D0010E12025E
:1009C000F3CF11F0A151A25DA015F324105CE66EE7
:1009D000A00EE66E010EE66EB1EC17F0E552E552A0
:1009E000E552E76E020EE7CFDBFFDB5018E10A0E9F
:1009F00000019A5D01E26AD10101A2510001BD5DD1
:100A000001E164D1BDC0A2F19A6B0101A151A25DC7
:100A100002E1010EC36FE66A010EE66E39D10001F4
:100A20009A6B0001BD510101A25DA015106E030E6D
:100A3000105C01E245D10001BD510101A25DA0158C
:100A4000116E0001BD290101A015EA6AA30FE96E2C
:100A5000010EEA22EF500F0B030F115C01E230D1BF
:100A6000010EDB6A030EDB6A080EF36E010EDBCFAC
:100A7000F4FFF350F45C22E2010EDBCF10F0000132
:100A8000BD51EA6AA30FE96E010EEA22EF5010C0D1
:100A9000E7FFE75204E0E8427F0BE706FCE1010BC9
:100AA0000AE0030EDB5002E0000E01D0010EE76EFB
:100AB000030EE7CFDBFF010EDB2AD6D7030EDB5098
:100AC0001DE00001BD290101A015EA6AA30FE96E2E
:100AD000010EEA22EF500F0B030FE66EBDC0E6FFDA
:100AE000A00EE66E010EE66E44EC15F0E552E552FE
:100AF000E552E552090EE66E080EC8D0010EDB6A1B
:100B0000DF6A0001BD290101A015EA6AA30FE96EA1
:100B1000010EEA22EF500F0B030FFE0FF36E010ED2
:100B2000DBCFF4FFF350F45C11E2010EDB50000167
:100B3000BD25010F0101A015EA6AA30FE96E010EA0
:100B4000EA22EF50DF1A010EDB2ADBD7010EDB5061
:100B50000001BD25010F0101A015EA6AA30FE96E8E
:100B6000010EEA22EF50DF5C1DE00001BD2901010A
:100B7000A015EA6AA30FE96E010EEA22EF500F0BEF
:100B8000030FE66EBDC0E6FFA00EE66E010EE66E38
:100B900044EC15F0E552E552E552E552060EE66EDC
:100BA000070E74D00001BD51EA6AA30FE96E010E71
:100BB000EA22EF50E00BE838E840030B01082BE194
:100BC000BD290101A015EA6AA30FE96E010EEA2210
:100BD000EF500F0B030FE66EBDC0E6FF81D8E55264
:100BE000E5520001BD290101A015EA6AA30FE96ED3
:100BF000010EEA22EF500F0B030FE66EBDC0E6FFB9
:100C0000A00EE66E010EE66E44EC15F0E552E552DC
:100C1000E552E55206D7B8511CE1BD290101A015E6
:100C2000EA6AA30FE96E010EEA22EF500F0B030FE1
:100C3000E66EBDC0E6FFA00EE66E010EE66E44EC69
:100C400015F0E552E552E552E552080EE66E090E42
:100C50001DD08BA823D0BD290101A015EA6AA30FDE
:100C6000E96E010EEA22EF500F0B030FE66EBDC0D6
:100C7000E6FFA00EE66E010EE66E44EC15F0E552BE
:100C8000E552E552E5520B0EE66E0A0EE66E010ED7
:100C9000E66EA0DAE552E552E55218D0BD29010111
:100CA000A015EA6AA30FE96E010EEA22EF500F0BBE
:100CB000030F0001BD250101A0150001BD6FB1D6D4
:100CC0000A0E0001B25D02E38B82B26B040EE15C9E
:100CD00002E2E16AE552E16EE552E7CFD9FF120088
:100CE000D9CFE6FFE1CFD9FFE652FE0EDB50020F6F
:100CF0000101A015EA6AA30FE96E010EEA22EFCF07
:100D0000DFFFDF380F0B0A083FE1010EDF1402E0BE
:100D1000000E01D0010EE8B08B88E8A08B98010E80
:100D2000DF14E8B0AB88E8A0AB98010EDF14E8B0A0
:100D30009D8AE8A09D9AABB80FD00001986B010E78
:100D4000976F966FA56BA66BA76BA86BA96BAA6B29
:100D5000AB6BAC6BAB989D9ADF50E840E840E84045
:100D60001F0B010B0001E8B0AD83E8A0AD93DF508D
:100D7000E840E8403F0B010BE8B0AD81E8A0AD9141
:100D8000AE6BAF6BB06B04D0A20EDF5C03E1000171
:100D9000B9813FD0800EDF5C15E10201E05139E1FD
:100DA0000101A00E806F130E816F800E826F400EC6
:100DB000836F100E846F8151821983198419856F96
:100DC000060E10D0810EDF5C18E10201E05121E136
:100DD0000101A00E806F010E816F040E826F050E5F
:100DE000836F040EE66E800EE66E010EE66E0EEC6C
:100DF00018F0E552E552E5520CD0820EDF5C03E1BB
:100E00000001B98306D0050EDF5C03E10001AE6B83
:100E1000AF6BE552E552E7CFD9FF1200D9CFE6FF1D
:100E2000E1CFD9FFE6520101A151A25DA015DF6E0D
:100E3000030EDF5C29E3A129A015EA6AA30FE96E7E
:100E4000010EEA22EF500F0B030FDF5C1DE3A12917
:100E5000A0150001A26F8A8C940EA06F0E0EA16FD8
:100E6000A36B0101A151EA6AA30FE96E010EEA2208
:100E7000EF50E66E010EE66EE66A65EC19F0E5529B
:100E8000E552E5529D8801D044D8E552E552E7CFBE
:100E9000D9FF12000001A251EA6AA30FE96E010E08
:100EA000EA22EF50E66E000EE66EE66A65EC19F097
:100EB000E552E552E5520001A2290101A015000109
:100EC000A26F0101A129A015EA6AA30FE96E010E24
:100ED000EA22EF500F0B030FA125A0150001A25D20
:100EE00011E1A2C0A1F10101A251A15D02E1010E37
:100EF000C36F0001120EA06F0F0EA16F010EA36F42
:100F00009D981200940EA06F0E0EA16FA36B9D888A
:100F10001200D9CFE6FFE1CFD9FF040EE126DE6A49
:100F2000DE6ADE6ADD6ADD52DD520001962B200E9C
:100F3000965D07E3992B050E995D01E3996B010E10
:100F4000966F040E995D68E196511F0BA5C010F0D5
:100F5000A6C011F0A7C012F0A8C013F007E0D89007
:100F60001332123211321032E806F9E110C0DFFFFD
:100F7000010E11C0DBFF020E12C0DBFF030E13C017
:100F8000DBFFD9CFE9FFDACFEAFFEECF10F0EECFEB
:100F900011F0EECF12F0EFCF13F01050111012102D
:100FA000131005E10001996B010E966F35D0010E0B
:100FB000106E116A126A136AD9CFE9FFDACFEAFF1D
:100FC000EE501016EE501116EE501216EE5013168B
:100FD00010501110121013101FE1D9CFE9FFDACF12
:100FE000EAFFEECF10F0EECF11F0EECF12F0EFCF20
:100FF00013F0D890133212321132103210C0DFFFCA
:10100000010E11C0DBFF020E12C0DBFF030E13C086
:10101000DBFF0001962BCBD7AB889D8A0001976B35
:10102000986B8A8CC00EA06F110EA16F9D989B6B60
:101030009C6B040E995D02E1000E01D0010E400D83
:10104000F3509625E66E7AD8E552E66E010EE66E0E
:10105000E66A65EC19F0E552E552E5520001010E31
:10106000A36F040EE15C02E2E16AE552E16EE55233
:10107000E7CFD9FF1200D9CFE6FFE1CFD9FF020EAB
:10108000E126DE6ADD6ADECF10F0DDCF11F0FD0E65
:10109000DBCFE9FFFE0EDBCFEAFFEF50126E136AE3
:1010A00013501118E8AE02D0113404D01050125C65
:1010B0001150135822E3FD0EDBCFE9FFFE0EDBCF0C
:1010C000EAFF030EE926000EEA22DE50E924E96E6B
:1010D000DD50EA20EA6EEF50E66EDECFE9FFDDCFAD
:1010E000EAFF800EE926010EEA22E552E750EF6E94
:1010F000DF2A010EC8E3DB2AC6D7FD0EDBCFE9FFEE
:10110000FE0EDBCFEAFFEF28E66E800EE66E010EE4
:10111000E66E0EEC18F0E552E552E552020EE15C87
:1011200002E2E16AE552E16EE552E7CFD9FF120033
:101130000001966B010E976F986B1200D9CFE6FFF6
:10114000E1CFD9FF030EE126020EDB6AFE0EDB5073
:10115000E76E010EE7CFDBFFDF6A070EDF5C18E208
:10116000FE0EDB50010B01080AE1020EDB5002E02B
:10117000000E01D0010EE76E020EE7CFDBFFFE0E80
:10118000DB407F0BE76EFE0EE7CFDBFFDF2AE5D704
:10119000020EDB50800D010EDBCFE7FFF350E712AC
:1011A000010EE7CFDBFFDB50106E030EE15C02E2C5
:1011B000E16AE552E16E1050E552E7CFD9FF120027
:1011C0008A9C0001010E976F985101E0976BA06B0C
:1011D000A16B1200D9CFE6FFE1CFD9FF0201E051A8
:1011E00019E10101A00E806FFE0EDBCF81F1FD0E33
:1011F000DBCF82F1FC0EDBCF83F1040EE66E800EB6
:10120000E66E010EE66E0EEC18F0E552E552E55280
:10121000010E01D0000EE552E7CFD9FF1200D9CF61
:10122000E6FFE1CFD9FFE6520001B9A159D0010193
:10123000C429116EC429136EC651C55D02E1E75180
:1012400002E0000E01D0010E1302C551C65DC415A7
:10125000F324115C106E040E105C01E262D10001F7
:10126000B991AD51020B01E0FF0E080DF3CF12F062
:10127000AD51010B01E0FF0E040DF3CF11F0B85199
:10128000E824106E8B50100B100A01E0010EA00F25
:10129000102411241224DF6EA00EE66EC40EE66E3A
:1012A000010EE66E09EC13F0E552E552E552110E1F
:1012B000E66EC40EE66E010EE66E09EC13F0E55222
:1012C000E552E552DFCFE6FFC40EE66E010EE66E94
:1012D00009EC13F0E552E552E552110EDF1817D173
:1012E000B9A3D6D00101C429116EC429136EC65109
:1012F000C55D02E1E75102E0000E01D0010E1302CC
:10130000F3CF12F0C551C65DC415F324115C106E05
:10131000080E105C01E205D10001B993A00EE66E43
:10132000C40EE66E010EE66E09EC13F0E552E552CE
:10133000E552150EE66EC40EE66E010EE66E09EC81
:1013400013F0E552E552E552820EE66EC40EE66EEB
:10135000010EE66E09EC13F0E552E552E552A5C028
:1013600010F0A6C011F0A7C012F0A8C013F0180E1C
:10137000D8901332123211321032E806F9E11050CF
:10138000E66EC40EE66E010EE66E09EC13F0E55251
:10139000E552E552A7C010F0A8C011F00001126A92
:1013A000136A1050E66EC40EE66E010EE66E09EC8E
:1013B00013F0E552E552E552A6C010F0A7C011F0B7
:1013C000A8C012F00001136A1050E66EC40EE66E5B
:1013D000010EE66E09EC13F0E552E552E55200010C
:1013E000A551E66EC40EE66E010EE66E09EC13F032
:1013F000E552E552E552180E1F0BA5C010F0A6C02D
:1014000011F0A7C012F0A8C013F007E0D890133273
:10141000123211321032E806F9E1970E101AA7C005
:1014200014F0A8C015F00001166A176A156A166A4A
:10143000176A1450101A1550111A1650121A175014
:10144000131AA6C018F0A7C019F0A8C01AF01B6A9A
:10145000196A1A6A1B6A1850101A1950111A1A5070
:10146000121A1B50131AA5C01CF0A6C01DF0A7C06D
:101470001EF0A8C01FF01D6A1E6A1F6A1C50101AB9
:101480001D50111A1E50121A1F50131A10503FD01F
:10149000B9A547D00101C429116EC429136EC651E4
:1014A000C55D02E1E75102E0000E01D0010E13021A
:1014B000F3CF12F0C551C65DC415F324115C106E54
:1014C000040E105C2EE30001B995A00EE66EC40E6A
:1014D000E66E010EE66E09EC13F0E552E552E552B8
:1014E000010EE66EC40EE66E010EE66E09EC13F018
:1014F000E552E552E552050EE66EC40EE66E010EAB
:10150000E66E09EC13F0E552E552E552040EE66E84
:10151000C40EE66E010EE66E09EC13F0E552E552DC
:0C152000E552E552E552E7CFD9FF12007A
:04152C00D9CFE6FF2E
:10153000E1CFD9FFE652A0940F015F6B626A160EED
:10154000616E9F0E5B6F7B0E606E648C5C6B030E36
:10155000E66EE66AE66A540EE66E0F0EE66E6AEC1A
:101560001AF0106E050EE15E1050649CDF6ADF50C9
:10157000106E116A100E105C000E115810E2DF5050
:10158000040DF3CFE9FFF4CFEAFF000EE926020EC7
:10159000EA22EE6AEE6AEE6AEE6ADF2AE8D70F0107
:1015A000160E536F62A602D06296FCD700017B6BC9
:1015B000806B816B826B6498DF6A040EDF5C18E2DB
:1015C000EA6ADF34FE0BEA36E96E6F0EE926000E9A
:1015D000EA22EE6AED6AEA6ADF34FE0BEA36E96E69
:1015E000670EE926000EEA22EE6AED6ADF2AE5D7E9
:1015F0000001080E6F6F020E706F616B606BE55239
:10160000E552E7CFD9FF1200D9CFE6FFE1CFD9FFEE
:10161000E6520001600507E164BA05D0626A6080A5
:101620006088020E606F6250040B05E06050040B8E
:1016300002E06294B9D864B260D06250010B16E047
:101640006050010B13E072DFD08EA284A084F28E72
:101650000001040E606F0201400E026F020E036F64
:10166000080E016F006B8C0E001362906250100B1D
:1016700005E06050100B02E085D862986250400B84
:1016800013E06050400B10E0010EE66EE66A000EBB
:10169000E66EE66A730EE66EE66A5AEC02F0106ECB
:1016A000060EE15E1050629C6250200B04E0605018
:1016B000200B01E04DD86250020B14E06050020B89
:1016C00011E0010EE66EE66A000EE66EE66AE66876
:1016D0007F0EE66E5AEC02F0106E060EE15E1050C0
:1016E0000F015F6B040E0001E76E6019E8AE02D0D7
:1016F000E73402D0E750605D02E2A19424D060A6F6
:1017000021D0DF6A040EDF5C1DE262A61BD063CF2E
:1017100088F06296780E0001881502E15AD810D040
:10172000000EE66EE66A880EE66E000EE66E720E3B
:10173000E66EE66A5AEC02F0106E060EE15E10509C
:10174000DF2AE0D7A194E552E552E7CFD9FF120096
:101750000F0153A115D063C0E9FF64C0EAFFEF5049
:1017600080080DE16FC0E9FF70C0EAFFEF50840808
:1017700006E163C0E9FF64C0EAFF8C0EEF6E53918F
:10178000629A1200608462986482000EE66EE66AD5
:10179000E66EE66A750EE66EE66A5AEC02F0106EC8
:1017A000060EE15E10501200000EE66EE66AE66E6E
:1017B000E66A740EE66EE66A5AEC02F0106E060EE9
:1017C000E15E10506492609462A402D06294FCD7EF
:1017D0001200D9CFE6FFE1CFD9FFE652FD0E00019E
:1017E00088155AE17E0E8815E8407F0B040DF3CF73
:1017F00063F0F4CF64F0000E6327020E642363C02D
:1018000065F064C066F0657563C0E9FF64C0EAFF17
:10181000EF503C0BE842E8420D083CE163C0E9FFB1
:1018200064C0EAFF020EE926000EEA22EECF10F0B5
:10183000EFCF11F0480E10182BE1020E111828E11D
:1018400063C0E9FF64C0EAFF020EE926000EEA2247
:10185000400EEE6E020EED6EDF6ADF50106E116A02
:10186000080E105C000E115813E2DF50EA6A480FB0
:10187000E96E020EEA22EF50E66EDF50EA6A400F90
:10188000E96E020EEA22E552E750EF6EDF2AE5D755
:101890000DD807D02ED805D0FD0E8815040801E11B
:1018A0004ED8E552E552E7CFD9FF12006FC0E9FFED
:1018B00070C0EAFFEF50800B05E06FC0E9FF70C019
:1018C000EAFFEF6A0001776B786B7C6B7D6B7B6B5B
:1018D000B5D8000EE66EE66AE66EE66A030EE66EC0
:1018E000E66A5AEC02F0106E060EE15E1050B3EF9D
:1018F0000EF0020E0001785D02E10EEF10F06CD8E0
:10190000000189511AE165C0E9FF66C0EAFFEE52A5
:10191000080EEF6E65C0E9FF66C0EAFF020EE92619
:10192000000EEA22400EEE6E020EED6E65C0E9FF7B
:1019300066C0EAFF8C0EEF6E1200896B1200D9CFE1
:10194000E6FFE1CFD9FFE6526FC0E9FF70C0EAFFC2
:10195000EF50400B01E0010EDF6E00016F75080EC5
:10196000605D0CE142C25CFF0F015C51000803E2C4
:101970000001100E02D00001040E606F780526E110
:101980006FC0E9FF70C0EAFF020EE926000EEA22EE
:10199000480EEE6E020EED6EB8DA020E0001775DB3
:1019A00006E16FC0E9FF70C0EAFF840E0DD0DF5082
:1019B00006E16FC0E9FF70C0EAFFC80E05D06FC036
:1019C000E9FF70C0EAFF880EEF6E01D005D8E5523E
:1019D000E552E7CFD9FF1200D9CFE6FFE1CFD9FF1B
:1019E000020EE1260001786B6FC0E9FF70C0EAFFCC
:1019F000EF6A040E6F19106E70C011F0DE6E70C0C9
:101A0000DDFFDECFE9FFDDCFEAFFEF6A80AF0CD06C
:101A10008351841107E005D084C0FAFF000183518F
:101A2000F96EFADF0001809F020EE15C02E2E16ADA
:101A3000E552E16EE552E7CFD9FF120002014051B5
:101A4000600BE842E842E842E842E842000901E06F
:101A5000120041510C0A50E00B0A3FE00C0A31E041
:101A6000010A22E00B0A1EE0020A1CE0030A18E049
:101A7000080A10E0010A0CE00F0A08E0030A01E07E
:101A8000120000017B8F080E606F120002EF0EF053
:101A9000AAEF10F00001610E796F000E7A6F0CD082
:101AA00059EF0EF07DEF0DF044510001796F7A6B24
:101AB000620E7927000E7A237B81010E7C6F7B8F6B
:101AC000120000017B8F02014451EA6A620FE96E45
:101AD000000EEA2242C2EFFF1200000EE66EE66A36
:101AE000E66EE66A020EE66EE66A5AEC02F0106EE8
:101AF000060EE15E105012001200D9CFE6FFE1CFD2
:101B0000D9FF040EE1260201420510E140511F0BEE
:101B100000090CE100017B8F030E0201415D04E12D
:101B20000001010E876F02D00001876B0201425154
:101B30005FE140511F0B02085BE144510F0B0009AC
:101B400057E000017B8F020144BF0BD044510F0BC3
:101B5000E96EEA6AD890E936EA36670EE926000EA1
:101B60000AD044510F0BE96EEA6AD890E936EA369A
:101B70006F0EE926000EEA22EECFDEFFEDCFDDFF8D
:101B8000030E415D06E1DECFE9FFDDCFEAFF840E03
:101B90002ED044510F0B116A530F106E0F0E1122ED
:101BA000020E10C0DBFF030E11C0DBFF020EDBCF05
:101BB000E9FF030EDBCFEAFFEF9044AF0CD0DECF9E
:101BC000E9FFDDCFEAFFEF6ADF74DECFE9FFDDCFAB
:101BD000EAFF400E0CD0DECFE9FFDDCFEAFF880E32
:101BE000EF6EDF74DECFE9FFDDCFEAFFC80EEF6EE8
:101BF000040EE15C02E2E16AE552E16EE552E7CFF4
:101C0000D9FF1200800E0201405D52E10001C00EBA
:101C10007B6F02014351030A29E0010A09E0030A2C
:101C200045E10001F60E796F330E7A6F120E38D04F
:101C30004251F66EF76AD890F636F7367F0EF626E2
:101C4000340EF7220900F5CF79F00A00F5CF7AF0CB
:101C5000020E0001F76A7925F66E7A51F722090023
:101C6000F5CF7CF00A00F5CF7DF01200030E425D47
:101C70001AE24251F66EF76AD890F636F736810EC0
:101C8000F626340EF7220900F5CF79F00A00F5CFD9
:101C90007AF079C0F6FF7AC0F7FF0800F55000012E
:101CA0007C6F7D6B120000017B6B120000017B6B6F
:101CB0001200D9CFE6FFE1CFD9FF020EE1260201E3
:101CC000486B496B40511F0B020A11E0030A0CE0FC
:101CD000010A35E100017B8F02014881000187057F
:101CE0002EE1020148832BD000017B8F28D0000118
:101CF0007B8F020144BF0BD044510F0BE96EEA6A9F
:101D0000D890E936EA36670EE926000E0AD044512B
:101D10000F0BE96EEA6AD890E936EA366F0EE926CB
:101D2000000EEA22EECFDEFFEDCFDDFFDECFE9FFD2
:101D3000DDCFEAFFEF50040B02E0010E486F000117
:101D40007BAF07D0480E796F020E7A6F7B81020E4F
:101D50007C6F020EE15C02E2E16AE552E16EE5525F
:101D6000E7CFD9FF1200649800017BBF47D080AF56
:101D700026D0020E786F6FC0E9FF70C0EAFFEE5206
:101D8000EF6A6FC0E9FF70C0EAFFC80EEF6E65C072
:101D9000E9FF66C0EAFFEE52080EEF6E65C0E9FF8C
:101DA00066C0EAFF020EE926000EEA22480EEE6E39
:101DB000020EED6E65C0E9FF66C0EAFF7AD065C02D
:101DC000E9FF66C0EAFFEE52080EEF6E65C0E9FF5C
:101DD00066C0EAFF020EE926000EEA22400EEE6E11
:101DE000020EED6E65C0E9FF66C0EAFF8C0EEF6E75
:101DF0006FC0E9FF70C0EAFF840E5CD080BF84D062
:101E0000020140AF59D000017C510201465D000142
:101E10007D510201475904E246C27CF047C27DF081
:101E200074D80001010E786F65C0E9FF66C0EAFF53
:101E3000EE52080EEF6E65C0E9FF66C0EAFF020EC3
:101E4000E926000EEA22400EEE6E020EED6E65C02F
:101E5000E9FF66C0EAFF800EEF6E896B63C0E9FFA1
:101E600064C0EAFFEE52080EEF6E63C0E9FF64C083
:101E7000EAFF020EE926000EEA22400EEE6E020E86
:101E8000ED6E63C0E9FF64C0EAFF840EEF6E010EE1
:101E9000896F6FC0E9FF70C0EAFF020EE926000EED
:101EA000EA22480EEE6E020EED6E6FC0E9FF70C0C2
:101EB000EAFFC80EEF6E12000001020E786F6FC0CD
:101EC000E9FF70C0EAFFEE52EF6A6FC0E9FF70C031
:101ED000EAFFC80EEF6E65C0E9FF66C0EAFFEE528A
:101EE000080EEF6E65C0E9FF66C0EAFF020EE92644
:101EF000000EEA22480EEE6E020EED6E65C0E9FF9E
:101F000066C0EAFFC80EEF6E1200D9CFE6FFE1CF40
:101F1000D9FF020EE1260001080E7C5D000E7D59FE
:101F20000DE27CC0DEFF7DC0DDFF775102E1010ED6
:101F300003D0770506E1020E776F03D0080EDE6E40
:101F4000DD6A6FC0E9FF70C0EAFFEF926FC0E9FF82
:101F500070C0EAFFEF906FC0E9FF70C0EAFF010EAA
:101F6000DB50EF126FC0E9FF70C0EAFFEE52DFCF27
:101F7000EFFF000EDB507C5F010EDB507D5B480EF7
:101F8000856F020E866F7BB120D0D9CFE9FFDACF03
:101F9000EAFFEE50ED1038E079C0F6FF7AC0F7FFA7
:101FA000792B000E7A230800F550E66E85C0E9FF14
:101FB00086C0EAFF852B000E8623E552E750EF6EC0
:101FC000DF06010EE2E2DB06E0D7D9CFE9FFDACF88
:101FD000EAFFEE50ED1018E079C0E9FF7AC0EAFFA1
:101FE000792B000E7A23EF50E66E85C0E9FF86C09C
:101FF000EAFF852B000E8623E552E750EF6EDF06E1
:10200000010EE3E2DB06E1D7020EE15C02E2E16AE7
:10201000E552E16EE552E7CFD9FF1200D9CFE6FFD6
:10202000E1CFD9FF020EE12663C0E9FF64C0EAFFF9
:10203000EE52EFCFDFFFDFCF10F010500001815DD7
:10204000000E825902E281C0DFFFDF50106E116A7C
:10205000E850815D816F11508259826F010EDB6AF9
:10206000DF50F36E010EDBCFF4FFF350F45C16E2A9
:10207000010EDB50EA6A480FE96E020EEA22EF50C9
:10208000E66E7EC0E9FF7FC0EAFF7E2B000E7F2355
:10209000E552E750EF6E010EDB2AE2D7000ED88042
:1020A0008155000E825527E265C0E9FF66C0EAFF50
:1020B000EE52080EEF6E65C0E9FF66C0EAFF020E41
:1020C000E926000EEA22480EEE6E020EED6E63C0A7
:1020D000E9FF64C0EAFFEF50400B06E165C0E9FF8D
:1020E00066C0EAFFC80E05D065C0E9FF66C0EAFF1A
:1020F000880EEF6E25D065C0E9FF66C0EAFFEE529C
:10210000080EEF6E65C0E9FF66C0EAFF020EE92621
:10211000000EEA22400EEE6E020EED6E65C0E9FF83
:1021200066C0EAFF840EEF6E8351841107E005D08C
:1021300084C0FAFF00018351F96EFADF0001809F2D
:10214000020EE15C02E2E16AE552E16EE552E7CFA0
:10215000D9FF1200D9CFE6FFE1CFD9FFE652000147
:102160007B8F030EE66EE66AE66A540EE66E0F0E8D
:10217000E66E6AEC1AF0106E050EE15E1050DF6A32
:10218000DF50106E116A100E105C000E115810E234
:10219000DF50040DF3CFE9FFF4CFEAFF000EE9268C
:1021A000020EEA22EE6AEE6AEE6AEE6ADF2AE8D7EB
:1021B000648C010EE66EE66AE66A620EE66E000E5A
:1021C000E66E6AEC1AF0106E050EE15E1050649C2B
:1021D0000001080E6F6F020E706F000E636F020E2B
:1021E000646F63C065F0666F42C261F0615102E1E5
:1021F000100E12D0010EE66EE66A610EE66E000E5B
:10220000E66E010EE66EE66A5AEC02F0106E060EFD
:10221000E15E10500001200E606FE552E552E7CFFD
:10222000D9FF1200D9CFE6FFE1CFD9FF020EE12698
:10223000000EDE6E020EDD6EFD0EDB50E824126E27
:10224000FE0EDB50040DF3501224040DF350106EFB
:10225000116A020E0F0B05E0D89011321032E80619
:10226000FBE1D89010361136D89010361136D9CF00
:10227000E9FFDACFEAFF1050EE261150ED22DECF53
:10228000E9FFDDCFEAFFEF9EFD0EDB500AE1FE0E17
:10229000EA6ADB34FE0BEA36E96E670EE926000EC9
:1022A00009D0FE0EEA6ADB34FE0BEA36E96E6F0EE9
:1022B000E926000EEA22DECFEEFFDDCFEDFFDECF16
:1022C000E9FFDDCFEAFFEF9CDECFE9FFDDCFEAFFDC
:1022D000040EE926000EEA22EF8C020EE15C02E217
:1022E000E16AE552E16EE552E7CFD9FF1200D9CF9E
:1022F000E6FFE1CFD9FF020EE126FE0EDB50116AA8
:10230000530F106E0F0E112210C0DEFF11C0DDFF43
:10231000DECFE9FFDDCFEAFFFD0EDBCFEFFFDBA471
:1023200007D0E66AFE0EDBCFE6FF7CDFE552E55222
:10233000FD0EDBA208D0010EE66EFE0EDBCFE6FF3F
:1023400071DFE552E552020EE15C02E2E16AE5521C
:10235000E16EE552E7CFD9FF1200D9CFE6FFE1CF1A
:10236000D9FF020EE126FE0EDB5020E165C0E9FF39
:1023700066C0EAFFEE52080EEF6E65C0E9FF66C068
:10238000EAFF020EE926000EEA22400EEE6E020E71
:10239000ED6E65C0E9FF66C0EAFF8C0EEF6E6FC0A0
:1023A000E9FF70C0EAFF840EEF6E3BD0FD0EDB50FC
:1023B000E824126EFE0EDB50040DF3501224040DBF
:1023C000F3CF10F0F4CF11F0000E1026020E112200
:1023D00010C0DEFF11C0DDFF840EDECFE9FFDDCFD0
:1023E000EAFFE850EF12FD0EDB50E824126EFE0EFD
:1023F000DB50040DF3501224010F040DF3CF10F045
:10240000F4CF11F0000E1026020E112210C0DEFFD4
:1024100011C0DDFF840EDECFE9FFDDCFEAFFE8501B
:10242000EF12020EE15C02E2E16AE552E16EE55272
:10243000E7CFD9FF1200D9CFE6FFE1CFD9FF020ED7
:10244000E126FD0EDB500AE0FE0EEA6ADB34FE0BED
:10245000EA36E96E6F0EE926000E09D0FE0EEA6A32
:10246000DB34FE0BEA36E96E670EE926000EEA223F
:10247000EECFDEFFEDCFDDFFD9CFE9FFDACFEAFF08
:10248000EE50ED1003E1F36AF46A44D0DECFE9FFC9
:10249000DDCFEAFF020EE926000EEA22FB0EDBCFBB
:1024A000EEFFFC0EDBCFEDFFDECFE9FFDDCFEAFF75
:1024B000EE52FA0EDBCFEFFF400EDECFE9FFDDCFAD
:1024C000EAFFE850EF16880EDECFE9FFDDCFEAFF26
:1024D000E850EF12FD0EDB500AE0FE0EEA6ADB3434
:1024E000FE0BEA36E96E6F0EE926000E09D0FE0EED
:1024F000EA6ADB34FE0BEA36E96E670EE926000E67
:10250000EA22EF74DECF10F0DDCF11F010C0F3FF40
:1025100011C0F4FF020EE15C02E2E16AE552E16EF5
:10252000E552E7CFD9FF1200D9CFE6FFE1CFD9FFBF
:1025300064A84ED0FE0EEA6ADB34FE0BEA36E96E82
:102540006F0EE926000EEA22EE50EFCFEAFFE96EA9
:10255000400EEE16EE6AEE6AEE6AFE0EEA6ADB34B2
:10256000FE0BEA36E96E6F0EE926000EEA22EE5007
:10257000EFCFEAFFE96EEE7CFE0EEA6ADB34FE0B7B
:10258000EA36E96E6F0EE926000EEA22EF74400E7D
:10259000106EFE0EEA6ADB34FE0BEA36E96E6F0E51
:1025A000E926000EEA22EE50EFCFEAFFE96E105066
:1025B000EF16FE0EEA6ADB34FE0BEA36E96E6F0EAA
:1025C000E926000EEA22EE50EFCFEAFFE96EEF7C3B
:1025D000E552E7CFD9FF1200646A606A0001606BC0
:1025E00012000001605114E1646A606A160E616EA7
:1025F0000F019F0E5B6F7B0E606ED08EA284A08455
:10260000F28E64B602D06486FCD70001010E606FC2
:022610001200B6
:0E261200D9CFE6FFE1CFD9FFFD0EDBCFE9FF08
:10262000FE0EDBCFEAFF030EE926000EEA22E9CF19
:1026300010F0EACF11F0FD0EDBCFE9FFFE0EDBCF8D
:10264000EAFF020EE926000EEA22EF501024E96E9E
:10265000000E1120EA6EFC0EDBCFEFFFFD0EDBCF8C
:10266000E9FFFE0EDBCFEAFFEFCF10F0FD0EDBCF70
:10267000E9FFFE0EDBCFEAFF020EE926000EEA229A
:10268000EF281014E66EFD0EDBCFE9FFFE0EDBCF68
:10269000EAFF020EE926000EEA22E552E750EF6E4D
:1026A000FD0EDBCFE9FFFE0EDBCFEAFF230EE926AE
:1026B000000EEA22EF6AE552E7CFD9FF1200D9CF28
:1026C000E6FFE1CFD9FFE652FD0EDBCFE9FFFE0EBC
:1026D000DBCFEAFFEF28146EFD0EDBCFE9FFFE0E25
:1026E000DBCFEAFFEE52EFCF13F0FD0EDBCFE9FFB9
:1026F000FE0EDBCFEAFF020EE926000EEA22EF50C3
:10270000135C0CE1FD0EDBCFE9FFFE0EDBCFEAFF31
:10271000230EE926000EEA22EF5002E0000E01D05F
:10272000010E1402FD0EDBCFE9FFFE0EDBCFEAFF48
:10273000EFCF11F0FD0EDBCFE9FFFE0EDBCFEAFF9E
:10274000020EE926000EEA22EFCF10F0FD0EDBCFDD
:10275000E9FFFE0EDBCFEAFFEE52EF50105C1114E2
:10276000F32402E1000E5CD0FD0EDBCFE9FFFE0E8C
:10277000DBCFEAFF030EE926000EEA22E9CF10F0D4
:10278000EACF11F0FD0EDBCFE9FFFE0EDBCFEAFF53
:10279000EE52EF501024E96E000E1120EA6EEFCFDA
:1027A000DFFFFD0EDBCFE9FFFE0EDBCFEAFFEFCF51
:1027B00010F0FD0EDBCFE9FFFE0EDBCFEAFFEE529D
:1027C000EF281014E66EFD0EDBCFE9FFFE0EDBCF27
:1027D000EAFFEE52E552E750EF6EFD0EDBCFE9FF68
:1027E000FE0EDBCFEAFFEE52EFCF10F0FD0EDBCF97
:1027F000E9FFFE0EDBCFEAFF020EE926000EEA2219
:10280000EF50105C0CE1FD0EDBCFE9FFFE0EDBCFDD
:10281000EAFF230EE926000EEA22010EEF6EDF50DA
:10282000E552E552E7CFD9FF1200D9CFE6FFE1CF5D
:10283000D9FFE652FD0EDBCFE9FFFE0EDBCFEAFF4C
:10284000EF28146EFD0EDBCFE9FFFE0EDBCFEAFFB3
:10285000EE52EFCF13F0FD0EDBCFE9FFFE0EDBCF24
:10286000EAFF020EE926000EEA22EF50135C0CE1AB
:10287000FD0EDBCFE9FFFE0EDBCFEAFF230EE926DC
:10288000000EEA22EF5002E0000E01D0010E140209
:10289000FD0EDBCFE9FFFE0EDBCFEAFFEFCF11F03D
:1028A000FD0EDBCFE9FFFE0EDBCFEAFF020EE926CD
:1028B000000EEA22EFCF10F0FD0EDBCFE9FFFE0E97
:1028C000DBCFEAFFEE52EF50105C1114F324DF6E01
:1028D000FC0EDB50D880DF5403E2FC0EDB50DF6ED1
:1028E000FD0EDBCFE9FFFE0EDBCFEAFFEFCF10F0EE
:1028F000FD0EDBCFE9FFFE0EDBCFEAFFEE52EF501D
:10290000DF241014E66EFD0EDBCFE9FFFE0EDBCFF9
:10291000EAFFEE52E552E750EF6EFD0EDBCFE9FF26
:10292000FE0EDBCFEAFFEE52EFCF10F0FD0EDBCF55
:10293000E9FFFE0EDBCFEAFF020EE926000EEA22D7
:10294000EF50105C0CE1FD0EDBCFE9FFFE0EDBCF9C
:10295000EAFF230EE926000EEA22010EEF6EE55291
:10296000E552E7CFD9FF1200D9CFE6FFE1CFD9FF7B
:10297000E652FD0EDBCFE9FFFE0EDBCFEAFFEFCF25
:1029800010F0FC0EDBCFE6FFFD0EDBCFE9FFFE0E05
:10299000DBCFEAFFEE52EF50E552E7241014DF6E72
:1029A000FD0EDBCFE9FFFE0EDBCFEAFF030EE926CB
:1029B000000EEA22DF50E924E96E000EEA20EA6EFA
:1029C000EF50E552E552E7CFD9FF1200D9CFE6FF2D
:1029D000E1CFD9FF020EE126DE6ADD6ADECF10F01C
:1029E000DDCF11F0F90EDB50000111AE02D0D8900E
:1029F00003D0105C000E11583DE2FD0EDBCFE9FF65
:102A0000FE0EDBCFEAFF030EE926000EEA22E9CF35
:102A100012F0EACF13F0FA0EDB50186E196ADE508E
:102A20001824166EDD501920FD0EDBCFE9FFFE0ED7
:102A3000DBCFEAFFEF501614146E156A12501424FF
:102A4000E96E13501520EA6EEF50E66EFB0EDBCFF9
:102A500010F0FC0EDBCF11F0DE501024E96EDD50DB
:102A60001120EA6EE552E750EF6EDF2A010EB6E361
:102A7000DB2AB4D7020EE15C02E2E16AE552E16EC4
:102A8000E552E7CFD9FF1200D9CFE6FFE1CFD9FF5A
:102A9000020EE126FC0EDB50DE6EDD6AFD0EDBCFA2
:102AA000E9FFFE0EDBCFEAFFEFCF12F0FB0EDBCF2C
:102AB000E6FFFD0EDBCFE9FFFE0EDBCFEAFF020EE5
:102AC000E926000EEA22EF50E552D880E7541214AE
:102AD000116AE850DF1803E11150DE52DD1866E09C
:102AE000FD0EDBCFE9FFFE0EDBCFEAFF030EE9268A
:102AF000000EEA22E9CF14F0EACF15F0FB0EDB500E
:102B0000E76E000EDFCF18F0010EDBCF19F0E750B3
:102B10001826000E1922FD0EDBCFE9FFFE0EDBCFDB
:102B2000EAFFEF5000011814166E176A14501624AD
:102B3000E96E15501720EA6EEF50E66EFD0EDBCF02
:102B4000E9FFFE0EDBCFEAFF030EE926000EEA22C4
:102B5000E9CF10F0EACF11F0FD0EDBCFE9FFFE0E5A
:102B6000DBCFEAFFEF50126E136A000EDFCF08F0E2
:102B7000010EDBCF09F012C00DF013C00EF044ECD3
:102B80001AF013AE04D0046C051E000E052210507E
:102B90000424E96E11500520EA6EE552E750EF6E0D
:102BA000DF2A010E01E27AD7DB2A78D7FD0EDBCFD0
:102BB000E9FFFE0EDBCFEAFFEF50E76E000EDFCF3E
:102BC00010F0010EE7501016116AFD0EDBCFE9FF81
:102BD000FE0EDBCFEAFF020EE926000EEA2210C04D
:102BE000EFFFFD0EDBCFE9FFFE0EDBCFEAFFEE527B
:102BF000EFCF10F0FD0EDBCFE9FFFE0EDBCFEAFFDB
:102C0000020EE926000EEA22EF50105C0CE1FD0EE8
:102C1000DBCFE9FFFE0EDBCFEAFF230EE926000E35
:102C2000EA22010EEF6E020EE15C02E2E16AE55279
:102C3000E16EE552E7CFD9FF1200D9CFE6FFE1CF31
:102C4000D9FF020EE126FD0EDBCFE9FFFE0EDBCF42
:102C5000EAFFEF28156EFD0EDBCFE9FFFE0EDBCF9E
:102C6000EAFFEE52EFCF14F0FD0EDBCFE9FFFE0ED0
:102C7000DBCFEAFF020EE926000EEA22EF50145CD9
:102C80000CE1FD0EDBCFE9FFFE0EDBCFEAFF230EEA
:102C9000E926000EEA22EF5002E0000E01D0010EFC
:102CA0001502FD0EDBCFE9FFFE0EDBCFEAFFEFCF13
:102CB00012F0FD0EDBCFE9FFFE0EDBCFEAFF020EC6
:102CC000E926000EEA22EFCF11F0FD0EDBCFE9FF7F
:102CD000FE0EDBCFEAFFEE52EF50115C1214F3242C
:102CE000106EFA0EDB50105C01E285D0FD0EDBCFDA
:102CF000E9FFFE0EDBCFEAFFEFCF10F0FA0EDBCFDD
:102D0000E6FFFD0EDBCFE9FFFE0EDBCFEAFFEE5262
:102D1000EF50E552D880E7541014E66EFD0EDBCF7D
:102D2000E9FFFE0EDBCFEAFFEE52E552E750EF6E11
:102D3000DE6ADD6ADECF10F0DDCF11F0FA0EDB5077
:102D4000000111AE02D0D89003D0105C000E1158D3
:102D500043E2FB0EDBCF18F0FC0EDBCF19F0DE50A8
:102D60001824E96EDD501920EA6EEF50E66EFD0E74
:102D7000DBCFE9FFFE0EDBCFEAFF030EE926000EF4
:102D8000EA22E9CF10F0EACF11F0FD0EDBCFE9FF28
:102D9000FE0EDBCFEAFFEE52EF50166E176ADE50E2
:102DA0001624146EDD501720FD0EDBCFE9FFFE0E5A
:102DB000DBCFEAFFEF501414126E136A1050122486
:102DC000E96E11501320EA6EE552E750EF6EDF2AEC
:102DD000010EB0E3DB2AAED7FA0EDB5000080BE29F
:102DE000FD0EDBCFE9FFFE0EDBCFEAFF230EE92667
:102DF000000EEA22EF6A020EE15C02E2E16AE552AD
:102E0000E16EE552E7CFD9FF1200D9CFE6FFE1CF5F
:102E1000D9FFFD0EDBCFE9FFFE0EDBCFEAFF020E8E
:102E2000E926000EEA22EF50E66EFD0EDBCFE9FF49
:102E3000FE0EDBCFEAFFEE52E552E750EF6EFD0EDD
:102E4000DBCFE9FFFE0EDBCFEAFF230EE926000E03
:0E2E5000EA22010EEF6EE552E7CFD9FF120025
:022E5E0002016F
:102E600040511F0B010801E012004051600BE84285
:102E7000E842E842E842E842010801E01200445119
:102E800003E0440501E012004151220A31E0030A47
:102E900024E0010A15E0210A0DE0010A01E0120018
:102EA0000001F00E796F020E7A6F080E7C6F7D6B59
:102EB0007B8121D00001F00E796F020E7A6F1BD05A
:102EC00046C281F047C282F00001D80E7E6F020E2A
:102ED0007F6F836B846B808F12000001D80E796F37
:102EE000020E7A6F070E7C6F7D6BC10E7B6F120036
:102EF00042C2EBF200017B8F12000201D86B4B0E35
:102F0000D96FDA6BDB6BDC6BDD6B080EDE6F0201F9
:102F1000E06BDF6B1A0EE66E020EE66E77EC11F0D8
:102F2000E552E5521E0EE66E030EE66E77EC11F0EA
:102F3000E552E552400EE66E580EE66E020EE66E63
:102F4000E66A030EE66E1BEC12F0106E050EE15EF3
:102F50001050F3CFE7F2F4CFE8F20201E96BEA6B2D
:102F60001200D9CFE6FFE1CFD9FF0201DF6BE751B5
:102F7000E81102E1000E08D0E7C2E9FFE8C2EAFF6B
:102F8000EF50800B01E0010E000942E1FC0EDBCFA7
:102F900010F0E7C2E9FFE8C2EAFFEE52EF50D88036
:102FA000105408E2E7C2E9FFE8C2EAFFEE52FC0E65
:102FB000EFCFDBFFDF6BFC0EDB50DF5D16E2DF5196
:102FC000EA6A580FE96E020EEA22EF50E66EFD0E35
:102FD000DBCFE6FFFE0EDBCFE6FF09EC13F0E55298
:102FE000E552E5520201DF2BE6D7400EE66E580EA1
:102FF000E66E020EE66EE66A030EE66E1BEC12F05B
:10300000106E050EE15E1050F3CFE7F2F4CFE8F258
:103010000201DF51E552E7CFD9FF1200D9CFE6FF19
:10302000E1CFD9FFA0940201E0510CE1FD0EDBCF0E
:10303000E1F2FE0EDBCFE2F2FC0EDBCFE5F2010E99
:10304000E66FE06FA084E552E7CFD9FF1200D9CF39
:10305000E6FFE1CFD9FF030EE126A0940201E05183
:103060002DE1DF6AFD0EDBCF08F0FE0EDBCF09F0AD
:10307000DE5208C0DEFF09C0DDFFDD52DF2ADF506F
:10308000106E116AFF0E101802E111500BE0010ED4
:10309000DBCFE9FFDB2A020EDBCFEAFF01E3DB2A0D
:1030A000EF50ECE1FD0EDBCFE1F2FE0EDBCFE2F202
:1030B000DFCFE5F20201010EE66FE06FA084030EA0
:1030C000E15C02E2E16AE552E16EE552E7CFD9FF49
:1030D0001200D9CFE6FFE1CFD9FF030EE126A0947D
:1030E0000201E0512EE1DF6AFD0EDBCF08F0FE0E9B
:1030F000DBCF09F0DE5208C0DEFF09C0DDFFDD5284
:10310000DF2ADF50106E116AFF0E101802E1115015
:103110000CE0010EDBCFF6FFDB2A020EDBCFF7FF60
:1031200001E3DB2A0800F550EBE1FD0EDBCFE1F215
:10313000FE0EDBCFE2F2DFCFE5F20201E66B010E1D
:10314000E06FA084030EE15C02E2E16AE552E16E09
:10315000E552E7CFD9FF1200D9CFE6FFE1CFD9FF83
:10316000020EE126A0940201E951EA1102E1000EEB
:1031700008D0E9C2E9FFEAC2EAFFEF50800B01E0A4
:10318000010E000906E1030EE05D01E1E06BE05194
:1031900002E1A0847ED0020EE05D16E1E66A000E38
:1031A000E66EE66A010EE66E030EE66E1BEC12F0AA
:1031B000106E050EE15E1050F3CFE9F2F4CFEAF2A3
:1031C0000201030EE06F64D0E00562E1400E106E74
:1031D000116AE551105C000E115803E2400EDF6EDB
:1031E00002D0E5C2DFFFDF50E55DE56F980EE36FCB
:1031F000020EE46F010EDFCFDBFFE65116E1010E98
:10320000DB5028E0E1C2F6FFE2C2F7FF0800F5500C
:10321000E3C2E9FFE4C2EAFFEF6EE32B000EE42312
:10322000E12BE223010EDB06EAD7010EDB5012E0B0
:10323000E1C2E9FFE2C2EAFFEF50E3C2E9FFE4C204
:10324000EAFFEF6EE32B000EE423E12BE223010EF5
:10325000DB06EBD70201E55107E1400EDF5C02E13E
:10326000020E01D0030EE06FDFCFE6FF980EE66E90
:10327000020EE66E010EE66E030EE66E1BEC12F019
:10328000106E050EE15E1050F3CFE9F2F4CFEAF2D2
:10329000A084020EE15C02E2E16AE552E16EE552D1
:0632A000E7CFD9FF120088
:0A32A600938A939C939EAC94B89613
:1032B0000B0EAF6E8A9C788AAC98AB8EAC8CAB8CC4
:1032C000AB98AC8A9F8A9D9A1200D9CFE6FFE1CFD6
:1032D000D9FFFD0EDB50E8B0AC80E8A0AC90FC0E4E
:1032E000DB50AD6EE552E7CFD9FF12009E50200BA8
:1032F00001E0010E1200D9CFE6FFE1CFD9FF030EA6
:10330000E126AB50040B01E0010EE76E020EE7CFA1
:10331000DBFFAB50010BE76E010EE7CFDBFFAE50DA
:10332000DF6EABB2AB989E9ADFCF10F0010EDBCF11
:1033300011F0020EDBCF12F010C007F011C008F040
:1033400012C009F0030EE15C02E2E16AE552E16EAF
:08335000E552E7CFD9FF12009E
:08335800200EF66E000EF76E68
:10336000000EF86E01010900F550ED6F0900F550EF
:10337000EE6F03E1ED6701D03DD00900F550E86F35
:103380000900F550E96F0900F550EA6F09000900DE
:10339000F550E96E0900F550EA6E090009000900D0
:1033A000F550EB6F0900F550EC6F09000900F6CFFE
:1033B000EFF1F7CFF0F1F8CFF1F1E8C1F6FFE9C195
:1033C000F7FFEAC1F8FF0101EB5302E1EC5307E01C
:1033D0000900F550EE6EEB07F8E2EC07F9D7EFC104
:1033E000F6FFF0C1F7FFF1C1F8FF0101ED07000E94
:0633F000EE5BBFD71200E6
:0A33F6001201000202000008D804D2
:103400000A0000010102000109024300020100C09C
:103410003209040000010202010005240010010429
:10342000240202052406000105240100010705828B
:103430000308000209040100020A00000007050356
:10344000024000000705830240000004030904163F
:10345000034B004D005A002000420072006E006FC6
:1034600000200049001A0375004C00490020002D7F
:103470000020006D00610073007400650072000898
:07348000344B344F34653476
:08348800006A0EAE4DEF1AF0D0
:103490000D6C0E1EE86A0E22001E09AE55EF1AF0E2
:1034A000086C091EE86A0922001E84EC1AF009BEA5
:1034B00065EF1AF000AE000C086C091EE86A0922DC
:1034C000046C051EE86A0522000C00BE5CEF1AF0D1
:0434D0000188FF0C64
:0C34D400FE0EE3CFE9FFFF0EE3CFEAFF9E
:1034E000E9CFF3FFEACFF4FFFB0EE35003E1FC0E5C
:1034F000E35009E0FB0EE30602E2FC0EE306FD0EDC
:08350000E350EE6EF1D712005A
:08350800056A046A100EE76E6B
:10351000D89008360936043605360D50045C0E5036
:10352000055805E30D50045E0E50055A082AE72E93
:04353000F0D71200BE
:0C353400000EF36E00EE00F0030E01D854
:103540001200EA6002D0EE6AFCD7F350E960120084
:04355000EE6AFCD74C
:0C35540011EE00F021EE00F0F86A019C7E
:10356000ACEC19F0B8EC1AF049EC01F0FBD7120002
:02357000120047
:0E35720000000000000000000000000000004B
:10358000000000000000000000000000000A0A0F18
:0A359000000002000000000000002F
:020000040030CA
:0100000020DF
:0100010032CC
:010002000EEF
:010003001EDE
:01000500807A
:010006008D6C
:0100080003F4
:01000900C036
:01000A0003F2
:01000B00E014
:01000C0003F0
:01000D0040B2
:00000001FF
